{
  "_format": "hh-sol-artifact-1",
  "contractName": "certification_system",
  "sourceName": "contracts/certification_system.sol",
  "abi": [
    {
      "anonymous": false,
      "inputs": [
        {
          "indexed": true,
          "internalType": "address",
          "name": "takerAddress",
          "type": "address"
        },
        {
          "indexed": true,
          "internalType": "address",
          "name": "giverAddress",
          "type": "address"
        },
        {
          "indexed": false,
          "internalType": "string",
          "name": "courseName",
          "type": "string"
        },
        {
          "indexed": false,
          "internalType": "string",
          "name": "certificateUrl",
          "type": "string"
        }
      ],
      "name": "CertificateIssued",
      "type": "event"
    },
    {
      "anonymous": false,
      "inputs": [
        {
          "indexed": true,
          "internalType": "address",
          "name": "takerAddress",
          "type": "address"
        },
        {
          "indexed": true,
          "internalType": "address",
          "name": "giverAddress",
          "type": "address"
        },
        {
          "indexed": false,
          "internalType": "string",
          "name": "courseName",
          "type": "string"
        },
        {
          "indexed": false,
          "internalType": "string",
          "name": "certificateUrl",
          "type": "string"
        }
      ],
      "name": "CertificateSend",
      "type": "event"
    },
    {
      "anonymous": false,
      "inputs": [
        {
          "indexed": true,
          "internalType": "address",
          "name": "inviter",
          "type": "address"
        },
        {
          "indexed": true,
          "internalType": "address",
          "name": "invitee",
          "type": "address"
        },
        {
          "indexed": false,
          "internalType": "string",
          "name": "message",
          "type": "string"
        }
      ],
      "name": "InvitationSent",
      "type": "event"
    },
    {
      "anonymous": false,
      "inputs": [
        {
          "indexed": true,
          "internalType": "address",
          "name": "previousOwner",
          "type": "address"
        },
        {
          "indexed": true,
          "internalType": "address",
          "name": "newOwner",
          "type": "address"
        }
      ],
      "name": "OwnershipTransferred",
      "type": "event"
    },
    {
      "inputs": [
        {
          "internalType": "string",
          "name": "_institute_name",
          "type": "string"
        }
      ],
      "name": "become_provider",
      "outputs": [],
      "stateMutability": "nonpayable",
      "type": "function"
    },
    {
      "inputs": [
        {
          "internalType": "string",
          "name": "_course_name",
          "type": "string"
        },
        {
          "internalType": "string[]",
          "name": "_skills",
          "type": "string[]"
        }
      ],
      "name": "create_certificate",
      "outputs": [],
      "stateMutability": "nonpayable",
      "type": "function"
    },
    {
      "inputs": [
        {
          "internalType": "string",
          "name": "keyword",
          "type": "string"
        }
      ],
      "name": "find_certificates",
      "outputs": [
        {
          "internalType": "string[]",
          "name": "Certificates",
          "type": "string[]"
        }
      ],
      "stateMutability": "view",
      "type": "function"
    },
    {
      "inputs": [
        {
          "internalType": "string",
          "name": "keyword",
          "type": "string"
        }
      ],
      "name": "find_skills",
      "outputs": [
        {
          "internalType": "string[]",
          "name": "Skills",
          "type": "string[]"
        }
      ],
      "stateMutability": "view",
      "type": "function"
    },
    {
      "inputs": [],
      "name": "get_received_Certificates",
      "outputs": [
        {
          "internalType": "address[]",
          "name": "_sended_addresses",
          "type": "address[]"
        },
        {
          "internalType": "string[]",
          "name": "_course_names",
          "type": "string[]"
        },
        {
          "internalType": "string[]",
          "name": "_certificate_urls",
          "type": "string[]"
        }
      ],
      "stateMutability": "view",
      "type": "function"
    },
    {
      "inputs": [
        {
          "internalType": "address",
          "name": "_user_address",
          "type": "address"
        }
      ],
      "name": "get_user_certificates",
      "outputs": [
        {
          "internalType": "string",
          "name": "candidiateName",
          "type": "string"
        },
        {
          "internalType": "uint256",
          "name": "user_id",
          "type": "uint256"
        },
        {
          "internalType": "uint256[]",
          "name": "issueDates",
          "type": "uint256[]"
        },
        {
          "internalType": "string[]",
          "name": "courseNames",
          "type": "string[]"
        },
        {
          "internalType": "string[]",
          "name": "courseLengths",
          "type": "string[]"
        },
        {
          "internalType": "string",
          "name": "instituteName",
          "type": "string"
        },
        {
          "internalType": "string[][]",
          "name": "_skills",
          "type": "string[][]"
        },
        {
          "internalType": "string[]",
          "name": "certificateUrls",
          "type": "string[]"
        },
        {
          "internalType": "string[][]",
          "name": "instructorsNames",
          "type": "string[][]"
        },
        {
          "internalType": "address",
          "name": "takerAddress",
          "type": "address"
        },
        {
          "internalType": "address",
          "name": "giverAddress",
          "type": "address"
        },
        {
          "internalType": "enum certification_system.user_status",
          "name": "status",
          "type": "uint8"
        }
      ],
      "stateMutability": "view",
      "type": "function"
    },
    {
      "inputs": [
        {
          "internalType": "address",
          "name": "_address",
          "type": "address"
        }
      ],
      "name": "get_user_register_data",
      "outputs": [
        {
          "internalType": "address",
          "name": "_user_address",
          "type": "address"
        },
        {
          "internalType": "string",
          "name": "_name",
          "type": "string"
        },
        {
          "internalType": "uint256",
          "name": "_id",
          "type": "uint256"
        }
      ],
      "stateMutability": "view",
      "type": "function"
    },
    {
      "inputs": [
        {
          "internalType": "string",
          "name": "_course_name",
          "type": "string"
        },
        {
          "internalType": "string",
          "name": "_course_length",
          "type": "string"
        },
        {
          "internalType": "string",
          "name": "_certificate_url",
          "type": "string"
        },
        {
          "internalType": "string[]",
          "name": "_instructors_names",
          "type": "string[]"
        },
        {
          "internalType": "address",
          "name": "_taker_address",
          "type": "address"
        }
      ],
      "name": "give_certificate_to_user",
      "outputs": [],
      "stateMutability": "nonpayable",
      "type": "function"
    },
    {
      "inputs": [
        {
          "internalType": "address",
          "name": "_address",
          "type": "address"
        },
        {
          "internalType": "string",
          "name": "_message",
          "type": "string"
        }
      ],
      "name": "invite_others",
      "outputs": [],
      "stateMutability": "nonpayable",
      "type": "function"
    },
    {
      "inputs": [
        {
          "internalType": "address",
          "name": "_address",
          "type": "address"
        },
        {
          "internalType": "string",
          "name": "_course_name",
          "type": "string"
        }
      ],
      "name": "is_user_certified",
      "outputs": [
        {
          "internalType": "enum certification_system.user_status",
          "name": "",
          "type": "uint8"
        }
      ],
      "stateMutability": "view",
      "type": "function"
    },
    {
      "inputs": [],
      "name": "owner",
      "outputs": [
        {
          "internalType": "address",
          "name": "",
          "type": "address"
        }
      ],
      "stateMutability": "view",
      "type": "function"
    },
    {
      "inputs": [
        {
          "internalType": "string",
          "name": "_name",
          "type": "string"
        }
      ],
      "name": "register_yourself",
      "outputs": [],
      "stateMutability": "nonpayable",
      "type": "function"
    },
    {
      "inputs": [],
      "name": "renounceOwnership",
      "outputs": [],
      "stateMutability": "nonpayable",
      "type": "function"
    },
    {
      "inputs": [
        {
          "internalType": "address",
          "name": "_to",
          "type": "address"
        },
        {
          "internalType": "string",
          "name": "_course_name",
          "type": "string"
        }
      ],
      "name": "send_certificate",
      "outputs": [],
      "stateMutability": "nonpayable",
      "type": "function"
    },
    {
      "inputs": [
        {
          "internalType": "address",
          "name": "newOwner",
          "type": "address"
        }
      ],
      "name": "transferOwnership",
      "outputs": [],
      "stateMutability": "nonpayable",
      "type": "function"
    }
  ],
  "bytecode": "0x60806040523480156200001157600080fd5b506200001d3362000023565b62000073565b600080546001600160a01b038381166001600160a01b0319831681178455604051919092169283917f8be0079c531659141344cd1fd0a4f28419497f9722a3daafe3b4186f6b6457e09190a35050565b61359680620000836000396000f3fe608060405234801561001057600080fd5b50600436106100f55760003560e01c8063a232faf911610097578063d843225511610066578063d843225514610209578063eb36d4ca1461021c578063f2fde38b1461023e578063fbd465b21461025157600080fd5b8063a232faf9146101b9578063a8d38215146101cc578063ac1e9135146101e3578063b7ee804b146101f657600080fd5b806365d37ec8116100d357806365d37ec81461014b5780636ec247a514610176578063715018a6146101965780638da5cb5b1461019e57600080fd5b806313e7e419146100fa5780632ad5c25c14610123578063482f9cab14610138575b600080fd5b61010d610108366004612c29565b610264565b60405161011a9190612d16565b60405180910390f35b610136610131366004612dce565b6104b1565b005b610136610146366004612e4d565b610a77565b61015e610159366004612e90565b610e11565b60405161011a9c9b9a99989796959493929190612fb6565b610189610184366004612e4d565b611725565b60405161011a91906130a4565b61013661176a565b6000546040516001600160a01b03909116815260200161011a565b6101366101c73660046130b2565b61177e565b6101d4611de8565b60405161011a9392919061316f565b61010d6101f1366004612c29565b612132565b610136610204366004612c29565b612342565b610136610217366004612e4d565b61245e565b61022f61022a366004612e90565b612619565b60405161011a939291906131e4565b61013661024c366004612e90565b6126f2565b61013661025f366004612c29565b61276b565b6060806000805b600254811015610349576103246002828154811061028b5761028b613218565b9060005260206000200180546102a09061322e565b80601f01602080910402602001604051908101604052809291908181526020018280546102cc9061322e565b80156103195780601f106102ee57610100808354040283529160200191610319565b820191906000526020600020905b8154815290600101906020018083116102fc57829003601f168201915b505050505086612890565b1561033757816103338161327e565b9250505b806103418161327e565b91505061026b565b50806001600160401b0381111561036257610362612b74565b60405190808252806020026020018201604052801561039557816020015b60608152602001906001900390816103805790505b5091506000905060005b6002548110156104a8576103bf6002828154811061028b5761028b613218565b1561049657600281815481106103d7576103d7613218565b9060005260206000200180546103ec9061322e565b80601f01602080910402602001604051908101604052809291908181526020018280546104189061322e565b80156104655780601f1061043a57610100808354040283529160200191610465565b820191906000526020600020905b81548152906001019060200180831161044857829003601f168201915b505050505083838151811061047c5761047c613218565b602002602001018190525081806104929061327e565b9250505b806104a08161327e565b91505061039f565b50909392505050565b336000818152600560205260409020600201546001600160a01b0316146105165760405162461bcd60e51b81526020600482015260146024820152732cb7ba9030b932903737ba10383937bb34b232b960611b60448201526064015b60405180910390fd5b6040805160a08101825283815233600090815260056020908152928120600101805491938301916105469061322e565b80601f01602080910402602001604051908101604052809291908181526020018280546105729061322e565b80156105bf5780601f10610594576101008083540402835291602001916105bf565b820191906000526020600020905b8154815290600101906020018083116105a257829003601f168201915b505050918352505033600090815260056020908152604090912080549190920191906105ea9061322e565b80601f01602080910402602001604051908101604052809291908181526020018280546106169061322e565b80156106635780601f1061063857610100808354040283529160200191610663565b820191906000526020600020905b81548152906001019060200180831161064657829003601f168201915b5050509183525050336000818152600560208181526040808420600201546001600160a01b03168287015294850188905292825260048352928120805460018101825590825291902083519394508493919092029091019081906106c790826132e6565b50602082015160018201906106dc90826132e6565b50604082015160028201906106f190826132e6565b5060608201516003820180546001600160a01b0319166001600160a01b0390921691909117905560808201518051610733916004840191602090910190612abf565b5050336000908152600a60205260409081902090516107f692506107589086906133a5565b90815260405190819003602001902080546107729061322e565b80601f016020809104026020016040519081016040528092919081815260200182805461079e9061322e565b80156107eb5780601f106107c0576101008083540402835291602001916107eb565b820191906000526020600020905b8154815290600101906020018083116107ce57829003601f168201915b50505050508461297f565b61083857600280546001810182556000919091527f405787fa12a823e0f2b7631cc41b3ba8828b3321ca811111fa75cd3aa3bb5ace0161083684826132e6565b505b336000908152600a60205260409081902090518491906108599083906133a5565b9081526040519081900360200190209061087390826132e6565b50336000908152600a60205260409081902090518391906108959086906133a5565b908152602001604051809103902060040190805190602001906108b9929190612abf565b50600154825160006108cb82846133c1565b6001600160401b038111156108e2576108e2612b74565b60405190808252806020026020018201604052801561091557816020015b60608152602001906001900390816109005790505b50905060005b838110156109f9576001818154811061093657610936613218565b90600052602060002001805461094b9061322e565b80601f01602080910402602001604051908101604052809291908181526020018280546109779061322e565b80156109c45780601f10610999576101008083540402835291602001916109c4565b820191906000526020600020905b8154815290600101906020018083116109a757829003601f168201915b50505050508282815181106109db576109db613218565b602002602001018190525080806109f19061327e565b91505061091b565b5060005b82811015610a5a57858181518110610a1757610a17613218565b6020026020010151828286610a2c91906133c1565b81518110610a3c57610a3c613218565b60200260200101819052508080610a529061327e565b9150506109fd565b508051610a6e906001906020840190612abf565b50505050505050565b336000818152600660205260409020546001600160a01b031614610aad5760405162461bcd60e51b815260040161050d906133d9565b6001600160a01b0380831660008181526006602052604090205490911614610b175760405162461bcd60e51b815260206004820152601a60248201527f7265636569766572206973206e6f742072656769737465726564000000000000604482015260640161050d565b600133600090815260096020526040908190209051610b379084906133a5565b9081526040519081900360200190206002015460ff166001811115610b5e57610b5e612f7e565b14610bb95760405162461bcd60e51b815260206004820152602560248201527f596f7520617265206e6f742063657274696669656420696e207468697320636f6044820152643ab939b29760d91b606482015260840161050d565b6040805160608101825233808252602080830185905260009182526009905282812083519193830191610bed9086906133a5565b90815260200160405180910390206001018054610c099061322e565b80601f0160208091040260200160405190810160405280929190818152602001828054610c359061322e565b8015610c825780601f10610c5757610100808354040283529160200191610c82565b820191906000526020600020905b815481529060010190602001808311610c6557829003601f168201915b5050509190925250506001600160a01b038481166000908152600b60209081526040822080546001808201835591845292829020855160039094020180546001600160a01b03191693909416929092178355830151929350839290820190610cea90826132e6565b5060408201516002820190610cff90826132e6565b505033600090815260096020526040808220905191925090610d229085906133a5565b90815260200160405180910390206001018054610d3e9061322e565b80601f0160208091040260200160405190810160405280929190818152602001828054610d6a9061322e565b8015610db75780601f10610d8c57610100808354040283529160200191610db7565b820191906000526020600020905b815481529060010190602001808311610d9a57829003601f168201915b50505050509050336001600160a01b0316846001600160a01b03167f85d62ad17175a6e0841001b0885d37b0fecee35b1d67ca97e146808dcf3a7d398584604051610e03929190613409565b60405180910390a350505050565b6001600160a01b03811660009081526007602090815260408083206008909252822080546060939284928392839283928392839283928a92839283929091610e589061322e565b80601f0160208091040260200160405190810160405280929190818152602001828054610e849061322e565b8015610ed15780601f10610ea657610100808354040283529160200191610ed1565b820191906000526020600020905b815481529060010190602001808311610eb457829003601f168201915b50505050509c50600860008f6001600160a01b03166001600160a01b03168152602001908152602001600020600301549b5080805490506001600160401b03811115610f1f57610f1f612b74565b604051908082528060200260200182016040528015610f48578160200160208202803683370190505b508154909b506001600160401b03811115610f6557610f65612b74565b604051908082528060200260200182016040528015610f9857816020015b6060815260200190600190039081610f835790505b508154909a506001600160401b03811115610fb557610fb5612b74565b604051908082528060200260200182016040528015610fe857816020015b6060815260200190600190039081610fd35790505b506001600160a01b038f1660009081526008602052604090206002018054919a50906110139061322e565b80601f016020809104026020016040519081016040528092919081815260200182805461103f9061322e565b801561108c5780601f106110615761010080835404028352916020019161108c565b820191906000526020600020905b81548152906001019060200180831161106f57829003601f168201915b50508454939b5050506001600160401b0382111590506110ae576110ae612b74565b6040519080825280602002602001820160405280156110e157816020015b60608152602001906001900390816110cc5790505b5081549097506001600160401b038111156110fe576110fe612b74565b60405190808252806020026020018201604052801561113157816020015b606081526020019060019003908161111c5790505b5081549096506001600160401b0381111561114e5761114e612b74565b60405190808252806020026020018201604052801561118157816020015b606081526020019060019003908161116c5790505b509450600860008f6001600160a01b03166001600160a01b0316815260200190815260200160002060040160009054906101000a90046001600160a01b03169350600860008f6001600160a01b03166001600160a01b0316815260200190815260200160002060050160009054906101000a90046001600160a01b03169250600860008f6001600160a01b03166001600160a01b0316815260200190815260200160002060050160149054906101000a900460ff16915060005b81548110156117145781818154811061125657611256613218565b9060005260206000209060060201600001548c828151811061127a5761127a613218565b60200260200101818152505081818154811061129857611298613218565b906000526020600020906006020160010180546112b49061322e565b80601f01602080910402602001604051908101604052809291908181526020018280546112e09061322e565b801561132d5780601f106113025761010080835404028352916020019161132d565b820191906000526020600020905b81548152906001019060200180831161131057829003601f168201915b50505050508b828151811061134457611344613218565b602002602001018190525081818154811061136157611361613218565b9060005260206000209060060201600301805480602002602001604051908101604052809291908181526020016000905b8282101561143e5783829060005260206000200180546113b19061322e565b80601f01602080910402602001604051908101604052809291908181526020018280546113dd9061322e565b801561142a5780601f106113ff5761010080835404028352916020019161142a565b820191906000526020600020905b81548152906001019060200180831161140d57829003601f168201915b505050505081526020019060010190611392565b5050505088828151811061145457611454613218565b602002602001018190525081818154811061147157611471613218565b9060005260206000209060060201600201805461148d9061322e565b80601f01602080910402602001604051908101604052809291908181526020018280546114b99061322e565b80156115065780601f106114db57610100808354040283529160200191611506565b820191906000526020600020905b8154815290600101906020018083116114e957829003601f168201915b50505050508a828151811061151d5761151d613218565b602002602001018190525081818154811061153a5761153a613218565b906000526020600020906006020160040180546115569061322e565b80601f01602080910402602001604051908101604052809291908181526020018280546115829061322e565b80156115cf5780601f106115a4576101008083540402835291602001916115cf565b820191906000526020600020905b8154815290600101906020018083116115b257829003601f168201915b50505050508782815181106115e6576115e6613218565b602002602001018190525081818154811061160357611603613218565b9060005260206000209060060201600501805480602002602001604051908101604052809291908181526020016000905b828210156116e05783829060005260206000200180546116539061322e565b80601f016020809104026020016040519081016040528092919081815260200182805461167f9061322e565b80156116cc5780601f106116a1576101008083540402835291602001916116cc565b820191906000526020600020905b8154815290600101906020018083116116af57829003601f168201915b505050505081526020019060010190611634565b505050508682815181106116f6576116f6613218565b6020026020010181905250808061170c9061327e565b91505061123b565b505091939597999b5091939597999b565b6001600160a01b038216600090815260096020526040808220905161174b9084906133a5565b9081526040519081900360200190206002015460ff1690505b92915050565b6117726129d8565b61177c6000612a32565b565b336000818152600560205260409020600201546001600160a01b0316146117de5760405162461bcd60e51b81526020600482015260146024820152732cb7ba9030b932903737ba10383937bb34b232b960611b604482015260640161050d565b806001600160a01b03166117fa6000546001600160a01b031690565b6001600160a01b0316036118505760405162461bcd60e51b815260206004820152601d60248201527f6f776e65722063616e277420676976652063657274696669636174652e000000604482015260640161050d565b6001600160a01b03808216600081815260066020526040902054909116146118ba5760405162461bcd60e51b815260206004820152601860248201527f54616b6572206973206e6f7420726567697374657265642e0000000000000000604482015260640161050d565b60016001600160a01b0382166000908152600960205260409081902090516118e39088906133a5565b9081526040519081900360200190206002015460ff16600181111561190a5761190a612f7e565b0361196e5760405162461bcd60e51b815260206004820152602e60248201527f54686973207573657220697320616c726561647920636572746966696564206960448201526d37103a3434b99031b7bab939b29760911b606482015260840161050d565b8251602e146119b55760405162461bcd60e51b8152602060048201526013602482015272092dcecc2d8d2c89acae8c2c8c2e8c290c2e6d606b1b604482015260640161050d565b60006040518060c00160405280428152602001878152602001868152602001600a6000336001600160a01b03166001600160a01b0316815260200190815260200160002088604051611a0791906133a5565b9081526020016040518091039020600401805480602002602001604051908101604052809291908181526020016000905b82821015611ae4578382906000526020600020018054611a579061322e565b80601f0160208091040260200160405190810160405280929190818152602001828054611a839061322e565b8015611ad05780601f10611aa557610100808354040283529160200191611ad0565b820191906000526020600020905b815481529060010190602001808311611ab357829003601f168201915b505050505081526020019060010190611a38565b50505090825250602080820187905260409182018690526001600160a01b03851660009081526007825291822080546001818101835591845292829020845160069094020192835590830151929350839290820190611b4390826132e6565b5060408201516002820190611b5890826132e6565b5060608201518051611b74916003840191602090910190612abf565b5060808201516004820190611b8990826132e6565b5060a08201518051611ba5916005840191602090910190612abf565b5050506001600160a01b0382166000908152600660209081526040808320600890925290912090611bd99060010182613437565b503360009081526005602090815260408083206001600160a01b0386168452600890925290912060010190611c0e9082613437565b503360009081526005602090815260408083206001600160a01b0386168452600890925290912060020190611c469060010182613437565b506001600160a01b038216600081815260066020908152604080832060020154600883528184206003810191909155600581018054600490920180546001600160a01b0319169096179095556001600160a81b0319163360ff60a01b191617600160a01b17909355600990528190209051879190611cc59083906133a5565b90815260405190819003602001902090611cdf90826132e6565b506001600160a01b038216600090815260096020526040908190209051859190611d0a9089906133a5565b90815260200160405180910390206001019081611d2791906132e6565b506001600160a01b03821660009081526009602052604090819020905160019190611d539089906133a5565b908152604051908190036020019020600201805460ff191660018381811115611d7e57611d7e612f7e565b021790555033600090815260056020526040908190206002015490516001600160a01b03918216918416907f3bba53945d04b7fb148d571bad2069f7f69e5ef5802e63e4aa149323cafd13a290611dd8908a908990613409565b60405180910390a3505050505050565b336000908152600b602052604090205460609081908190806001600160401b03811115611e1757611e17612b74565b604051908082528060200260200182016040528015611e40578160200160208202803683370190505b509350806001600160401b03811115611e5b57611e5b612b74565b604051908082528060200260200182016040528015611e8e57816020015b6060815260200190600190039081611e795790505b509250806001600160401b03811115611ea957611ea9612b74565b604051908082528060200260200182016040528015611edc57816020015b6060815260200190600190039081611ec75790505b50915060005b8181101561212b57336000908152600b60205260409020805482908110611f0b57611f0b613218565b600091825260209091206003909102015485516001600160a01b0390911690869083908110611f3c57611f3c613218565b6001600160a01b03909216602092830291909101820152336000908152600b90915260409020805482908110611f7457611f74613218565b90600052602060002090600302016001018054611f909061322e565b80601f0160208091040260200160405190810160405280929190818152602001828054611fbc9061322e565b80156120095780601f10611fde57610100808354040283529160200191612009565b820191906000526020600020905b815481529060010190602001808311611fec57829003601f168201915b505050505084828151811061202057612020613218565b6020026020010181905250600b6000336001600160a01b03166001600160a01b03168152602001908152602001600020818154811061206157612061613218565b9060005260206000209060030201600201805461207d9061322e565b80601f01602080910402602001604051908101604052809291908181526020018280546120a99061322e565b80156120f65780601f106120cb576101008083540402835291602001916120f6565b820191906000526020600020905b8154815290600101906020018083116120d957829003601f168201915b505050505083828151811061210d5761210d613218565b602002602001018190525080806121239061327e565b915050611ee2565b5050909192565b60606000806001805490506001600160401b0381111561215457612154612b74565b60405190808252806020026020018201604052801561218757816020015b60608152602001906001900390816121725790505b50905060005b600154811015612296576121ad6001828154811061028b5761028b613218565b1561228457600181815481106121c5576121c5613218565b9060005260206000200180546121da9061322e565b80601f01602080910402602001604051908101604052809291908181526020018280546122069061322e565b80156122535780601f1061222857610100808354040283529160200191612253565b820191906000526020600020905b81548152906001019060200180831161223657829003601f168201915b505050505082848151811061226a5761226a613218565b602002602001018190525082806122809061327e565b9350505b8061228e8161327e565b91505061218d565b50816001600160401b038111156122af576122af612b74565b6040519080825280602002602001820160405280156122e257816020015b60608152602001906001900390816122cd5790505b50925060005b8281101561233a5781818151811061230257612302613218565b602002602001015184828151811061231c5761231c613218565b602002602001018190525080806123329061327e565b9150506122e8565b505050919050565b6000546001600160a01b0316330361239c5760405162461bcd60e51b815260206004820152601760248201527f4f776e65722063616e277420646f20616e797468696e67000000000000000000604482015260640161050d565b336000818152600660205260409020546001600160a01b0316036124025760405162461bcd60e51b815260206004820152601b60248201527f596f75206861766520616c726561647920726567697374657265640000000000604482015260640161050d565b600380549060006124128361327e565b909155505033600081815260066020526040902080546001600160a01b031916909117815560010161244482826132e6565b505060035433600090815260066020526040902060020155565b336000818152600660205260409020546001600160a01b0316146124945760405162461bcd60e51b815260040161050d906133d9565b336001600160a01b038316036124ec5760405162461bcd60e51b815260206004820152601a60248201527f596f752063616e277420696e7669746520796f757273656c662e000000000000604482015260640161050d565b6000546001600160a01b03166001600160a01b0316826001600160a01b0316036125585760405162461bcd60e51b815260206004820152601760248201527f596f752063616e277420696e76697465206f776e65722e000000000000000000604482015260640161050d565b6001600160a01b03808316600081815260066020526040902054909116036125cd5760405162461bcd60e51b815260206004820152602260248201527f5468697320697320616c72656164792061207265676973746572656420757365604482015261391760f11b606482015260840161050d565b60405182906001600160a01b0382169033907f994573f14ad3b387b36188da08f32725c8840f8039c7e287413f66c333a63c5b9061260c908690613511565b60405180910390a3505050565b6001600160a01b03808216600090815260066020526040812080546001909101805491909316926060929161264d9061322e565b80601f01602080910402602001604051908101604052809291908181526020018280546126799061322e565b80156126c65780601f1061269b576101008083540402835291602001916126c6565b820191906000526020600020905b8154815290600101906020018083116126a957829003601f168201915b505050506001600160a01b03959095166000908152600660205260409020600201549395909450915050565b6126fa6129d8565b6001600160a01b03811661275f5760405162461bcd60e51b815260206004820152602660248201527f4f776e61626c653a206e6577206f776e657220697320746865207a65726f206160448201526564647265737360d01b606482015260840161050d565b61276881612a32565b50565b336000818152600660205260409020546001600160a01b0316146127a15760405162461bcd60e51b815260040161050d906133d9565b336000818152600560205260409020600201546001600160a01b0316900361280b5760405162461bcd60e51b815260206004820152601860248201527f596f752061726520616c72656164792070726f76696465720000000000000000604482015260640161050d565b3360009081526006602090815260408083206005909252909120906128339060010182613437565b5033600090815260056020526040902060010161285082826132e6565b505033600090815260066020908152604080832054600590925290912060020180546001600160a01b0319166001600160a01b0392909216919091179055565b805182516000918491849111156128ac57600092505050611764565b60005b815183516128bd9190613524565b811161297357600160005b835181101561294c576128fa8482815181106128e6576128e6613218565b01602001516001600160f81b031916612a82565b6001600160f81b0319166129228661291284876133c1565b815181106128e6576128e6613218565b6001600160f81b0319161461293a576000915061294c565b806129448161327e565b9150506128c8565b508015612960576001945050505050611764565b508061296b8161327e565b9150506128af565b50600095945050505050565b60008160405160200161299291906133a5565b60405160208183030381529060405280519060200120836040516020016129b991906133a5565b6040516020818303038152906040528051906020012014905092915050565b6000546001600160a01b0316331461177c5760405162461bcd60e51b815260206004820181905260248201527f4f776e61626c653a2063616c6c6572206973206e6f7420746865206f776e6572604482015260640161050d565b600080546001600160a01b038381166001600160a01b0319831681178455604051919092169283917f8be0079c531659141344cd1fd0a4f28419497f9722a3daafe3b4186f6b6457e09190a35050565b6000604160f883901c10801590612a9e5750605a60f883901c11155b15612abb57612ab260f883901c602061353b565b60f81b92915050565b5090565b828054828255906000526020600020908101928215612b05579160200282015b82811115612b055782518290612af590826132e6565b5091602001919060010190612adf565b50612abb9291505b80821115612abb576000612b218282612b2a565b50600101612b0d565b508054612b369061322e565b6000825580601f10612b46575050565b601f01602090049060005260206000209081019061276891905b80821115612abb5760008155600101612b60565b634e487b7160e01b600052604160045260246000fd5b604051601f8201601f191681016001600160401b0381118282101715612bb257612bb2612b74565b604052919050565b600082601f830112612bcb57600080fd5b81356001600160401b03811115612be457612be4612b74565b612bf7601f8201601f1916602001612b8a565b818152846020838601011115612c0c57600080fd5b816020850160208301376000918101602001919091529392505050565b600060208284031215612c3b57600080fd5b81356001600160401b03811115612c5157600080fd5b612c5d84828501612bba565b949350505050565b60005b83811015612c80578181015183820152602001612c68565b83811115612c8f576000848401525b50505050565b60008151808452612cad816020860160208601612c65565b601f01601f19169290920160200192915050565b600081518084526020808501808196508360051b8101915082860160005b85811015612d09578284038952612cf7848351612c95565b98850198935090840190600101612cdf565b5091979650505050505050565b602081526000612d296020830184612cc1565b9392505050565b600082601f830112612d4157600080fd5b813560206001600160401b0380831115612d5d57612d5d612b74565b8260051b612d6c838201612b8a565b9384528581018301938381019088861115612d8657600080fd5b84880192505b85831015612dc257823584811115612da45760008081fd5b612db28a87838c0101612bba565b8352509184019190840190612d8c565b98975050505050505050565b60008060408385031215612de157600080fd5b82356001600160401b0380821115612df857600080fd5b612e0486838701612bba565b93506020850135915080821115612e1a57600080fd5b50612e2785828601612d30565b9150509250929050565b80356001600160a01b0381168114612e4857600080fd5b919050565b60008060408385031215612e6057600080fd5b612e6983612e31565b915060208301356001600160401b03811115612e8457600080fd5b612e2785828601612bba565b600060208284031215612ea257600080fd5b612d2982612e31565b600081518084526020808501945080840160005b83811015612edb57815187529582019590820190600101612ebf565b509495945050505050565b600081518084526020808501808196506005915083821b81018387016000805b87811015612f6f578484038b5282518051808652908801908886019080891b87018a01855b82811015612f5957601f19898303018452612f47828651612c95565b948c0194938c01939150600101612f2b565b509d8a019d965050509287019250600101612f06565b50919998505050505050505050565b634e487b7160e01b600052602160045260246000fd5b60028110612fb257634e487b7160e01b600052602160045260246000fd5b9052565b61018081526000612fcb61018083018f612c95565b8d60208401528281036040840152612fe3818e612eab565b90508281036060840152612ff7818d612cc1565b9050828103608084015261300b818c612cc1565b905082810360a084015261301f818b612c95565b905082810360c0840152613033818a612ee6565b905082810360e08401526130478189612cc1565b905082810361010084015261305c8188612ee6565b9150506130756101208301866001600160a01b03169052565b6001600160a01b038416610140830152613093610160830184612f94565b9d9c50505050505050505050505050565b602081016117648284612f94565b600080600080600060a086880312156130ca57600080fd5b85356001600160401b03808211156130e157600080fd5b6130ed89838a01612bba565b9650602088013591508082111561310357600080fd5b61310f89838a01612bba565b9550604088013591508082111561312557600080fd5b61313189838a01612bba565b9450606088013591508082111561314757600080fd5b5061315488828901612d30565b92505061316360808701612e31565b90509295509295909350565b606080825284519082018190526000906020906080840190828801845b828110156131b15781516001600160a01b03168452928401929084019060010161318c565b505050838103828501526131c58187612cc1565b91505082810360408401526131da8185612cc1565b9695505050505050565b6001600160a01b038416815260606020820181905260009061320890830185612c95565b9050826040830152949350505050565b634e487b7160e01b600052603260045260246000fd5b600181811c9082168061324257607f821691505b60208210810361326257634e487b7160e01b600052602260045260246000fd5b50919050565b634e487b7160e01b600052601160045260246000fd5b60006001820161329057613290613268565b5060010190565b601f8211156132e157600081815260208120601f850160051c810160208610156132be5750805b601f850160051c820191505b818110156132dd578281556001016132ca565b5050505b505050565b81516001600160401b038111156132ff576132ff612b74565b6133138161330d845461322e565b84613297565b602080601f83116001811461334857600084156133305750858301515b600019600386901b1c1916600185901b1785556132dd565b600085815260208120601f198616915b8281101561337757888601518255948401946001909101908401613358565b50858210156133955787850151600019600388901b60f8161c191681555b5050505050600190811b01905550565b600082516133b7818460208701612c65565b9190910192915050565b600082198211156133d4576133d4613268565b500190565b602080825260169082015275165bdd48185c99481b9bdd081c9959da5cdd195c995960521b604082015260600190565b60408152600061341c6040830185612c95565b828103602084015261342e8185612c95565b95945050505050565b818103613442575050565b61344c825461322e565b6001600160401b0381111561346357613463612b74565b6134718161330d845461322e565b6000601f8211600181146134a5576000831561348d5750848201545b600019600385901b1c1916600184901b17845561350a565b600085815260209020601f19841690600086815260209020845b838110156134df57828601548255600195860195909101906020016134bf565b50858310156134fd5781850154600019600388901b60f8161c191681555b50505060018360011b0184555b5050505050565b602081526000612d296020830184612c95565b60008282101561353657613536613268565b500390565b600060ff821660ff84168060ff0382111561355857613558613268565b01939250505056fea26469706673582212209a8584cdb53ddd5dc8f520ed2ead7cc247e2537e1c76f346437fa95b0f3df4cc64736f6c634300080f0033",
  "linkReferences": {},
  "deployedLinkReferences": {}
}