{
  "_format": "hh-sol-artifact-1",
  "contractName": "certification_system",
  "sourceName": "contracts/certification_system.sol",
  "abi": [
    {
      "anonymous": false,
      "inputs": [
        {
          "indexed": true,
          "internalType": "address",
          "name": "takerAddress",
          "type": "address"
        },
        {
          "indexed": true,
          "internalType": "address",
          "name": "giverAddress",
          "type": "address"
        },
        {
          "indexed": false,
          "internalType": "string",
          "name": "courseName",
          "type": "string"
        },
        {
          "indexed": false,
          "internalType": "string",
          "name": "certificateUrl",
          "type": "string"
        }
      ],
      "name": "CertificateIssued",
      "type": "event"
    },
    {
      "anonymous": false,
      "inputs": [
        {
          "indexed": true,
          "internalType": "address",
          "name": "takerAddress",
          "type": "address"
        },
        {
          "indexed": true,
          "internalType": "address",
          "name": "giverAddress",
          "type": "address"
        },
        {
          "indexed": false,
          "internalType": "string",
          "name": "courseName",
          "type": "string"
        },
        {
          "indexed": false,
          "internalType": "string",
          "name": "certificateUrl",
          "type": "string"
        }
      ],
      "name": "CertificateSend",
      "type": "event"
    },
    {
      "anonymous": false,
      "inputs": [
        {
          "indexed": true,
          "internalType": "address",
          "name": "inviter",
          "type": "address"
        },
        {
          "indexed": true,
          "internalType": "address",
          "name": "invitee",
          "type": "address"
        },
        {
          "indexed": false,
          "internalType": "string",
          "name": "message",
          "type": "string"
        }
      ],
      "name": "InvitationSent",
      "type": "event"
    },
    {
      "anonymous": false,
      "inputs": [
        {
          "indexed": true,
          "internalType": "address",
          "name": "previousOwner",
          "type": "address"
        },
        {
          "indexed": true,
          "internalType": "address",
          "name": "newOwner",
          "type": "address"
        }
      ],
      "name": "OwnershipTransferred",
      "type": "event"
    },
    {
      "inputs": [
        {
          "internalType": "string",
          "name": "_institute_name",
          "type": "string"
        }
      ],
      "name": "become_provider",
      "outputs": [],
      "stateMutability": "nonpayable",
      "type": "function"
    },
    {
      "inputs": [
        {
          "internalType": "string",
          "name": "_course_name",
          "type": "string"
        },
        {
          "internalType": "string[]",
          "name": "_skills",
          "type": "string[]"
        }
      ],
      "name": "create_certificate",
      "outputs": [],
      "stateMutability": "nonpayable",
      "type": "function"
    },
    {
      "inputs": [
        {
          "internalType": "string",
          "name": "keyword",
          "type": "string"
        }
      ],
      "name": "find_certificates",
      "outputs": [
        {
          "internalType": "string[]",
          "name": "Certificates",
          "type": "string[]"
        },
        {
          "internalType": "address[]",
          "name": "Providers",
          "type": "address[]"
        },
        {
          "internalType": "string[]",
          "name": "Institutes",
          "type": "string[]"
        },
        {
          "internalType": "string[][]",
          "name": "Skills",
          "type": "string[][]"
        }
      ],
      "stateMutability": "view",
      "type": "function"
    },
    {
      "inputs": [
        {
          "internalType": "string",
          "name": "keyword",
          "type": "string"
        }
      ],
      "name": "find_skills",
      "outputs": [
        {
          "internalType": "string[]",
          "name": "Skills",
          "type": "string[]"
        }
      ],
      "stateMutability": "view",
      "type": "function"
    },
    {
      "inputs": [],
      "name": "get_received_Certificates",
      "outputs": [
        {
          "internalType": "address[]",
          "name": "_sended_addresses",
          "type": "address[]"
        },
        {
          "internalType": "string[]",
          "name": "_course_names",
          "type": "string[]"
        },
        {
          "internalType": "string[]",
          "name": "_certificate_urls",
          "type": "string[]"
        }
      ],
      "stateMutability": "view",
      "type": "function"
    },
    {
      "inputs": [
        {
          "internalType": "address",
          "name": "_user_address",
          "type": "address"
        }
      ],
      "name": "get_user_certificates",
      "outputs": [
        {
          "internalType": "string",
          "name": "candidiateName",
          "type": "string"
        },
        {
          "internalType": "uint256",
          "name": "user_id",
          "type": "uint256"
        },
        {
          "internalType": "uint256[]",
          "name": "issueDates",
          "type": "uint256[]"
        },
        {
          "internalType": "string[]",
          "name": "courseNames",
          "type": "string[]"
        },
        {
          "internalType": "string[]",
          "name": "courseLengths",
          "type": "string[]"
        },
        {
          "internalType": "string",
          "name": "instituteName",
          "type": "string"
        },
        {
          "internalType": "string[][]",
          "name": "_skills",
          "type": "string[][]"
        },
        {
          "internalType": "string[]",
          "name": "certificateUrls",
          "type": "string[]"
        },
        {
          "internalType": "string[][]",
          "name": "instructorsNames",
          "type": "string[][]"
        },
        {
          "internalType": "address",
          "name": "takerAddress",
          "type": "address"
        },
        {
          "internalType": "address",
          "name": "giverAddress",
          "type": "address"
        },
        {
          "internalType": "enum certification_system.user_status",
          "name": "status",
          "type": "uint8"
        }
      ],
      "stateMutability": "view",
      "type": "function"
    },
    {
      "inputs": [
        {
          "internalType": "string",
          "name": "_course_name",
          "type": "string"
        },
        {
          "internalType": "string",
          "name": "_course_length",
          "type": "string"
        },
        {
          "internalType": "string",
          "name": "_certificate_url",
          "type": "string"
        },
        {
          "internalType": "string[]",
          "name": "_instructors_names",
          "type": "string[]"
        },
        {
          "internalType": "address",
          "name": "_taker_address",
          "type": "address"
        }
      ],
      "name": "give_certificate_to_user",
      "outputs": [],
      "stateMutability": "nonpayable",
      "type": "function"
    },
    {
      "inputs": [
        {
          "internalType": "address",
          "name": "_address",
          "type": "address"
        },
        {
          "internalType": "string",
          "name": "_message",
          "type": "string"
        }
      ],
      "name": "invite_others",
      "outputs": [],
      "stateMutability": "nonpayable",
      "type": "function"
    },
    {
      "inputs": [
        {
          "internalType": "address",
          "name": "_address",
          "type": "address"
        },
        {
          "internalType": "string",
          "name": "_course_name",
          "type": "string"
        }
      ],
      "name": "is_user_certified",
      "outputs": [
        {
          "internalType": "enum certification_system.user_status",
          "name": "",
          "type": "uint8"
        }
      ],
      "stateMutability": "view",
      "type": "function"
    },
    {
      "inputs": [],
      "name": "owner",
      "outputs": [
        {
          "internalType": "address",
          "name": "",
          "type": "address"
        }
      ],
      "stateMutability": "view",
      "type": "function"
    },
    {
      "inputs": [
        {
          "internalType": "string",
          "name": "_name",
          "type": "string"
        }
      ],
      "name": "register_yourself",
      "outputs": [],
      "stateMutability": "nonpayable",
      "type": "function"
    },
    {
      "inputs": [],
      "name": "renounceOwnership",
      "outputs": [],
      "stateMutability": "nonpayable",
      "type": "function"
    },
    {
      "inputs": [
        {
          "internalType": "address",
          "name": "_to",
          "type": "address"
        },
        {
          "internalType": "string",
          "name": "_course_name",
          "type": "string"
        }
      ],
      "name": "send_certificate",
      "outputs": [],
      "stateMutability": "nonpayable",
      "type": "function"
    },
    {
      "inputs": [
        {
          "internalType": "address",
          "name": "newOwner",
          "type": "address"
        }
      ],
      "name": "transferOwnership",
      "outputs": [],
      "stateMutability": "nonpayable",
      "type": "function"
    }
  ],
  "bytecode": "0x60806040523480156200001157600080fd5b506200001d3362000023565b62000073565b600080546001600160a01b038381166001600160a01b0319831681178455604051919092169283917f8be0079c531659141344cd1fd0a4f28419497f9722a3daafe3b4186f6b6457e09190a35050565b613b9780620000836000396000f3fe608060405234801561001057600080fd5b50600436106100ba5760003560e01c806313e7e419146100bf5780632ad5c25c146100eb578063482f9cab1461010057806365d37ec8146101135780636ec247a51461013e578063715018a61461015e5780638da5cb5b14610166578063a232faf914610186578063a8d3821514610199578063ac1e9135146101b0578063b7ee804b146101d0578063d8432255146101e3578063f2fde38b146101f6578063fbd465b214610209575b600080fd5b6100d26100cd366004613149565b61021c565b6040516100e29493929190613325565b60405180910390f35b6100fe6100f936600461341b565b6107a8565b005b6100fe61010e36600461349a565b610dc5565b6101266101213660046134dd565b611202565b6040516100e29c9b9a99989796959493929190613567565b61015161014c36600461349a565b611b16565b6040516100e2919061364b565b6100fe611b5b565b61016e611b6f565b6040516001600160a01b0390911681526020016100e2565b6100fe610194366004613659565b611b7e565b6101a16122d8565b6040516100e293929190613716565b6101c36101be366004613149565b612622565b6040516100e29190613759565b6100fe6101de366004613149565b6128cb565b6100fe6101f136600461349a565b6129e4565b6100fe6102043660046134dd565b612bfd565b6100fe610217366004613149565b612c76565b6060806060806060806060806000805b60025481101561030a576102e56002828154811061024c5761024c61376c565b90600052602060002001805461026190613782565b80601f016020809104026020016040519081016040528092919081815260200182805461028d90613782565b80156102da5780601f106102af576101008083540402835291602001916102da565b820191906000526020600020905b8154815290600101906020018083116102bd57829003601f168201915b50505050508c612dab565b156102f857816102f4816137d2565b9250505b80610302816137d2565b91505061022c565b50806001600160401b0381111561032357610323613094565b60405190808252806020026020018201604052801561035657816020015b60608152602001906001900390816103415790505b509450806001600160401b0381111561037157610371613094565b60405190808252806020026020018201604052801561039a578160200160208202803683370190505b509350806001600160401b038111156103b5576103b5613094565b6040519080825280602002602001820160405280156103e857816020015b60608152602001906001900390816103d35790505b509250806001600160401b0381111561040357610403613094565b60405190808252806020026020018201604052801561043657816020015b60608152602001906001900390816104215790505b5091506000905060005b600254811015610797576104606002828154811061024c5761024c61376c565b1561078557600281815481106104785761047861376c565b90600052602060002001805461048d90613782565b80601f01602080910402602001604051908101604052809291908181526020018280546104b990613782565b80156105065780601f106104db57610100808354040283529160200191610506565b820191906000526020600020905b8154815290600101906020018083116104e957829003601f168201915b505050505086838151811061051d5761051d61376c565b6020908102919091018101919091523360009081526006909152604090206002015485516001600160a01b039091169081908790859081106105615761056161376c565b6001600160a01b039283166020918202929092018101919091529082166000908152600690915260409020600101805461059a90613782565b80601f01602080910402602001604051908101604052809291908181526020018280546105c690613782565b80156106135780601f106105e857610100808354040283529160200191610613565b820191906000526020600020905b8154815290600101906020018083116105f657829003601f168201915b505050505085848151811061062a5761062a61376c565b602090810291909101810191909152336000908152600b90915260408120600280548590811061065c5761065c61376c565b9060005260206000200160405161067391906137eb565b9081526020016040518091039020600401905080805480602002602001604051908101604052809291908181526020016000905b828210156107535783829060005260206000200180546106c690613782565b80601f01602080910402602001604051908101604052809291908181526020018280546106f290613782565b801561073f5780601f106107145761010080835404028352916020019161073f565b820191906000526020600020905b81548152906001019060200180831161072257829003601f168201915b5050505050815260200190600101906106a7565b505050508585815181106107695761076961376c565b6020026020010181905250838061077f906137d2565b94505050505b8061078f816137d2565b915050610440565b509399929850909650945092505050565b336000818152600660205260409020600201546001600160a01b0316146107ea5760405162461bcd60e51b81526004016107e190613861565b60405180910390fd5b336000908152600b60205260409081902090516108ab919061080d90859061388f565b908152604051908190036020019020805461082790613782565b80601f016020809104026020016040519081016040528092919081815260200182805461085390613782565b80156108a05780601f10610875576101008083540402835291602001916108a0565b820191906000526020600020905b81548152906001019060200180831161088357829003601f168201915b505050505083612e9a565b156109045760405162461bcd60e51b815260206004820152602360248201527f5468697320636572746966696361746520697320616c726561647920637265616044820152621d195960ea1b60648201526084016107e1565b6040805160a081018252838152336000908152600660209081529281206001018054919383019161093490613782565b80601f016020809104026020016040519081016040528092919081815260200182805461096090613782565b80156109ad5780601f10610982576101008083540402835291602001916109ad565b820191906000526020600020905b81548152906001019060200180831161099057829003601f168201915b505050918352505033600090815260066020908152604090912080549190920191906109d890613782565b80601f0160208091040260200160405190810160405280929190818152602001828054610a0490613782565b8015610a515780601f10610a2657610100808354040283529160200191610a51565b820191906000526020600020905b815481529060010190602001808311610a3457829003601f168201915b5050509183525050336000818152600660209081526040808320600201546001600160a01b031682860152938401879052918152600580835292812080546001810182559082529190208351939450849391909202909101908190610ab6908261390f565b5060208201516001820190610acb908261390f565b5060408201516002820190610ae0908261390f565b5060608201516003820180546001600160a01b0319166001600160a01b0390921691909117905560808201518051610b22916004840191602090910190612fdf565b5050600280546001810182556000919091527f405787fa12a823e0f2b7631cc41b3ba8828b3321ca811111fa75cd3aa3bb5ace019050610b62848261390f565b50336000908152600660205260408120600301805491610b81836137d2565b9091555050336000908152600b6020526040908190209051849190610ba790839061388f565b90815260405190819003602001902090610bc1908261390f565b50336000908152600b6020526040908190209051839190610be390869061388f565b90815260200160405180910390206004019080519060200190610c07929190612fdf565b5060015482516000610c1982846139c8565b6001600160401b03811115610c3057610c30613094565b604051908082528060200260200182016040528015610c6357816020015b6060815260200190600190039081610c4e5790505b50905060005b83811015610d475760018181548110610c8457610c8461376c565b906000526020600020018054610c9990613782565b80601f0160208091040260200160405190810160405280929190818152602001828054610cc590613782565b8015610d125780601f10610ce757610100808354040283529160200191610d12565b820191906000526020600020905b815481529060010190602001808311610cf557829003601f168201915b5050505050828281518110610d2957610d2961376c565b60200260200101819052508080610d3f906137d2565b915050610c69565b5060005b82811015610da857858181518110610d6557610d6561376c565b6020026020010151828286610d7a91906139c8565b81518110610d8a57610d8a61376c565b60200260200101819052508080610da0906137d2565b915050610d4b565b508051610dbc906001906020840190612fdf565b50505050505050565b336000818152600760205260409020546001600160a01b031614610dfb5760405162461bcd60e51b81526004016107e1906139e0565b6001600160a01b03821633141580610e315750336000908152600660205260409020600201546001600160a01b03838116911614155b80610e555750816001600160a01b0316610e49611b6f565b6001600160a01b031614155b610ea15760405162461bcd60e51b815260206004820152601e60248201527f596f752063616e27742073656e7420617420746869732061646472657373000060448201526064016107e1565b6001600160a01b0380831660008181526007602052604090205490911614610f085760405162461bcd60e51b815260206004820152601a6024820152791c9958d95a5d995c881a5cc81b9bdd081c9959da5cdd195c995960321b60448201526064016107e1565b6001336000908152600a6020526040908190209051610f2890849061388f565b9081526040519081900360200190206002015460ff166001811115610f4f57610f4f61352f565b14610faa5760405162461bcd60e51b815260206004820152602560248201527f596f7520617265206e6f742063657274696669656420696e207468697320636f6044820152643ab939b29760d91b60648201526084016107e1565b604080516060810182523380825260208083018590526000918252600a905282812083519193830191610fde90869061388f565b90815260200160405180910390206001018054610ffa90613782565b80601f016020809104026020016040519081016040528092919081815260200182805461102690613782565b80156110735780601f1061104857610100808354040283529160200191611073565b820191906000526020600020905b81548152906001019060200180831161105657829003601f168201915b5050509190925250506001600160a01b038481166000908152600c60209081526040822080546001808201835591845292829020855160039094020180546001600160a01b031916939094169290921783558301519293508392908201906110db908261390f565b50604082015160028201906110f0908261390f565b5050336000908152600a602052604080822090519192509061111390859061388f565b9081526020016040518091039020600101805461112f90613782565b80601f016020809104026020016040519081016040528092919081815260200182805461115b90613782565b80156111a85780601f1061117d576101008083540402835291602001916111a8565b820191906000526020600020905b81548152906001019060200180831161118b57829003601f168201915b50505050509050336001600160a01b0316846001600160a01b03167f85d62ad17175a6e0841001b0885d37b0fecee35b1d67ca97e146808dcf3a7d3985846040516111f4929190613a10565b60405180910390a350505050565b6001600160a01b03811660009081526008602090815260408083206009909252822080546060939284928392839283928392839283928a9283928392909161124990613782565b80601f016020809104026020016040519081016040528092919081815260200182805461127590613782565b80156112c25780601f10611297576101008083540402835291602001916112c2565b820191906000526020600020905b8154815290600101906020018083116112a557829003601f168201915b50505050509c50600960008f6001600160a01b03166001600160a01b03168152602001908152602001600020600301549b5080805490506001600160401b0381111561131057611310613094565b604051908082528060200260200182016040528015611339578160200160208202803683370190505b508154909b506001600160401b0381111561135657611356613094565b60405190808252806020026020018201604052801561138957816020015b60608152602001906001900390816113745790505b508154909a506001600160401b038111156113a6576113a6613094565b6040519080825280602002602001820160405280156113d957816020015b60608152602001906001900390816113c45790505b506001600160a01b038f1660009081526009602052604090206002018054919a509061140490613782565b80601f016020809104026020016040519081016040528092919081815260200182805461143090613782565b801561147d5780601f106114525761010080835404028352916020019161147d565b820191906000526020600020905b81548152906001019060200180831161146057829003601f168201915b50508454939b5050506001600160401b03821115905061149f5761149f613094565b6040519080825280602002602001820160405280156114d257816020015b60608152602001906001900390816114bd5790505b5081549097506001600160401b038111156114ef576114ef613094565b60405190808252806020026020018201604052801561152257816020015b606081526020019060019003908161150d5790505b5081549096506001600160401b0381111561153f5761153f613094565b60405190808252806020026020018201604052801561157257816020015b606081526020019060019003908161155d5790505b509450600960008f6001600160a01b03166001600160a01b0316815260200190815260200160002060040160009054906101000a90046001600160a01b03169350600960008f6001600160a01b03166001600160a01b0316815260200190815260200160002060050160009054906101000a90046001600160a01b03169250600960008f6001600160a01b03166001600160a01b0316815260200190815260200160002060050160149054906101000a900460ff16915060005b8154811015611b05578181815481106116475761164761376c565b9060005260206000209060060201600001548c828151811061166b5761166b61376c565b6020026020010181815250508181815481106116895761168961376c565b906000526020600020906006020160010180546116a590613782565b80601f01602080910402602001604051908101604052809291908181526020018280546116d190613782565b801561171e5780601f106116f35761010080835404028352916020019161171e565b820191906000526020600020905b81548152906001019060200180831161170157829003601f168201915b50505050508b82815181106117355761173561376c565b60200260200101819052508181815481106117525761175261376c565b9060005260206000209060060201600301805480602002602001604051908101604052809291908181526020016000905b8282101561182f5783829060005260206000200180546117a290613782565b80601f01602080910402602001604051908101604052809291908181526020018280546117ce90613782565b801561181b5780601f106117f05761010080835404028352916020019161181b565b820191906000526020600020905b8154815290600101906020018083116117fe57829003601f168201915b505050505081526020019060010190611783565b505050508882815181106118455761184561376c565b60200260200101819052508181815481106118625761186261376c565b9060005260206000209060060201600201805461187e90613782565b80601f01602080910402602001604051908101604052809291908181526020018280546118aa90613782565b80156118f75780601f106118cc576101008083540402835291602001916118f7565b820191906000526020600020905b8154815290600101906020018083116118da57829003601f168201915b50505050508a828151811061190e5761190e61376c565b602002602001018190525081818154811061192b5761192b61376c565b9060005260206000209060060201600401805461194790613782565b80601f016020809104026020016040519081016040528092919081815260200182805461197390613782565b80156119c05780601f10611995576101008083540402835291602001916119c0565b820191906000526020600020905b8154815290600101906020018083116119a357829003601f168201915b50505050508782815181106119d7576119d761376c565b60200260200101819052508181815481106119f4576119f461376c565b9060005260206000209060060201600501805480602002602001604051908101604052809291908181526020016000905b82821015611ad1578382906000526020600020018054611a4490613782565b80601f0160208091040260200160405190810160405280929190818152602001828054611a7090613782565b8015611abd5780601f10611a9257610100808354040283529160200191611abd565b820191906000526020600020905b815481529060010190602001808311611aa057829003601f168201915b505050505081526020019060010190611a25565b50505050868281518110611ae757611ae761376c565b60200260200101819052508080611afd906137d2565b91505061162c565b505091939597999b5091939597999b565b6001600160a01b0382166000908152600a60205260408082209051611b3c90849061388f565b9081526040519081900360200190206002015460ff1690505b92915050565b611b63612ef3565b611b6d6000612f52565b565b6000546001600160a01b031690565b336000818152600660205260409020600201546001600160a01b031614611bb75760405162461bcd60e51b81526004016107e190613861565b806001600160a01b0316611bc9611b6f565b6001600160a01b031603611c1f5760405162461bcd60e51b815260206004820152601d60248201527f6f776e65722063616e277420676976652063657274696669636174652e00000060448201526064016107e1565b336000908152600660205260409020600201546001600160a01b03808316911603611c8c5760405162461bcd60e51b815260206004820181905260248201527f50726f76696465722063616e277420676976652063657274696669636174652e60448201526064016107e1565b6001600160a01b0380821660008181526007602052604090205490911614611cf15760405162461bcd60e51b81526020600482015260186024820152772a30b5b2b91034b9903737ba103932b3b4b9ba32b932b21760411b60448201526064016107e1565b336000908152600b6020526040908190209051611db29190611d1490889061388f565b9081526040519081900360200190208054611d2e90613782565b80601f0160208091040260200160405190810160405280929190818152602001828054611d5a90613782565b8015611da75780601f10611d7c57610100808354040283529160200191611da7565b820191906000526020600020905b815481529060010190602001808311611d8a57829003601f168201915b505050505086612e9a565b611df15760405162461bcd60e51b815260206004820152601060248201526f10dbdd5c9cd9481b9bdd08199bdd5b9960821b60448201526064016107e1565b60016001600160a01b0382166000908152600a6020526040908190209051611e1a90889061388f565b9081526040519081900360200190206002015460ff166001811115611e4157611e4161352f565b03611ea55760405162461bcd60e51b815260206004820152602e60248201527f54686973207573657220697320616c726561647920636572746966696564206960448201526d37103a3434b99031b7bab939b29760911b60648201526084016107e1565b60006040518060c00160405280428152602001878152602001868152602001600b6000336001600160a01b03166001600160a01b0316815260200190815260200160002088604051611ef7919061388f565b9081526020016040518091039020600401805480602002602001604051908101604052809291908181526020016000905b82821015611fd4578382906000526020600020018054611f4790613782565b80601f0160208091040260200160405190810160405280929190818152602001828054611f7390613782565b8015611fc05780601f10611f9557610100808354040283529160200191611fc0565b820191906000526020600020905b815481529060010190602001808311611fa357829003601f168201915b505050505081526020019060010190611f28565b50505090825250602080820187905260409182018690526001600160a01b03851660009081526008825291822080546001818101835591845292829020845160069094020192835590830151929350839290820190612033908261390f565b5060408201516002820190612048908261390f565b5060608201518051612064916003840191602090910190612fdf565b5060808201516004820190612079908261390f565b5060a08201518051612095916005840191602090910190612fdf565b5050506001600160a01b03821660009081526007602090815260408083206009909252909120906120c99060010182613a3e565b503360009081526006602090815260408083206001600160a01b03861684526009909252909120600101906120fe9082613a3e565b503360009081526006602090815260408083206001600160a01b03861684526009909252909120600201906121369060010182613a3e565b506001600160a01b038216600081815260076020908152604080832060020154600983528184206003810191909155600581018054600490920180546001600160a01b0319169096179095556001600160a81b0319163360ff60a01b191617600160a01b17909355600a905281902090518791906121b590839061388f565b908152604051908190036020019020906121cf908261390f565b506001600160a01b0382166000908152600a60205260409081902090518591906121fa90899061388f565b90815260200160405180910390206001019081612217919061390f565b506001600160a01b0382166000908152600a60205260409081902090516001919061224390899061388f565b908152604051908190036020019020600201805460ff19166001838181111561226e5761226e61352f565b021790555033600090815260066020526040908190206002015490516001600160a01b03918216918416907f3bba53945d04b7fb148d571bad2069f7f69e5ef5802e63e4aa149323cafd13a2906122c8908a908990613a10565b60405180910390a3505050505050565b336000908152600c602052604090205460609081908190806001600160401b0381111561230757612307613094565b604051908082528060200260200182016040528015612330578160200160208202803683370190505b509350806001600160401b0381111561234b5761234b613094565b60405190808252806020026020018201604052801561237e57816020015b60608152602001906001900390816123695790505b509250806001600160401b0381111561239957612399613094565b6040519080825280602002602001820160405280156123cc57816020015b60608152602001906001900390816123b75790505b50915060005b8181101561261b57336000908152600c602052604090208054829081106123fb576123fb61376c565b600091825260209091206003909102015485516001600160a01b039091169086908390811061242c5761242c61376c565b6001600160a01b03909216602092830291909101820152336000908152600c909152604090208054829081106124645761246461376c565b9060005260206000209060030201600101805461248090613782565b80601f01602080910402602001604051908101604052809291908181526020018280546124ac90613782565b80156124f95780601f106124ce576101008083540402835291602001916124f9565b820191906000526020600020905b8154815290600101906020018083116124dc57829003601f168201915b50505050508482815181106125105761251061376c565b6020026020010181905250600c6000336001600160a01b03166001600160a01b0316815260200190815260200160002081815481106125515761255161376c565b9060005260206000209060030201600201805461256d90613782565b80601f016020809104026020016040519081016040528092919081815260200182805461259990613782565b80156125e65780601f106125bb576101008083540402835291602001916125e6565b820191906000526020600020905b8154815290600101906020018083116125c957829003601f168201915b50505050508382815181106125fd576125fd61376c565b60200260200101819052508080612613906137d2565b9150506123d2565b5050909192565b60606000806001805490506001600160401b0381111561264457612644613094565b60405190808252806020026020018201604052801561267757816020015b60608152602001906001900390816126625790505b50905060005b60015481101561281f576127366001828154811061269d5761269d61376c565b9060005260206000200180546126b290613782565b80601f01602080910402602001604051908101604052809291908181526020018280546126de90613782565b801561272b5780601f106127005761010080835404028352916020019161272b565b820191906000526020600020905b81548152906001019060200180831161270e57829003601f168201915b505050505086612dab565b1561280d576001818154811061274e5761274e61376c565b90600052602060002001805461276390613782565b80601f016020809104026020016040519081016040528092919081815260200182805461278f90613782565b80156127dc5780601f106127b1576101008083540402835291602001916127dc565b820191906000526020600020905b8154815290600101906020018083116127bf57829003601f168201915b50505050508284815181106127f3576127f361376c565b60200260200101819052508280612809906137d2565b9350505b80612817816137d2565b91505061267d565b50816001600160401b0381111561283857612838613094565b60405190808252806020026020018201604052801561286b57816020015b60608152602001906001900390816128565790505b50925060005b828110156128c35781818151811061288b5761288b61376c565b60200260200101518482815181106128a5576128a561376c565b602002602001018190525080806128bb906137d2565b915050612871565b505050919050565b6128d3611b6f565b6001600160a01b031633036129245760405162461bcd60e51b81526020600482015260176024820152764f776e65722063616e277420646f20616e797468696e6760481b60448201526064016107e1565b336000818152600760205260409020546001600160a01b0316036129885760405162461bcd60e51b815260206004820152601b60248201527a165bdd481a185d9948185b1c9958591e481c9959da5cdd195c9959602a1b60448201526064016107e1565b60038054906000612998836137d2565b909155505033600081815260076020526040902080546001600160a01b03191690911781556001016129ca828261390f565b505060035433600090815260076020526040902060020155565b336000818152600760205260409020546001600160a01b031614612a1a5760405162461bcd60e51b81526004016107e1906139e0565b336001600160a01b03831603612a6f5760405162461bcd60e51b815260206004820152601a6024820152792cb7ba9031b0b713ba1034b73b34ba32903cb7bab939b2b6331760311b60448201526064016107e1565b612a77611b6f565b6001600160a01b0316826001600160a01b031603612ad15760405162461bcd60e51b81526020600482015260176024820152762cb7ba9031b0b713ba1034b73b34ba329037bbb732b91760491b60448201526064016107e1565b6001600160a01b038083166000818152600660205260409020600201549091169003612b3c5760405162461bcd60e51b815260206004820152601a6024820152792cb7ba9031b0b713ba1034b73b34ba3290383937bb34b232b91760311b60448201526064016107e1565b6001600160a01b0380831660008181526007602052604090205490911603612bb15760405162461bcd60e51b815260206004820152602260248201527f5468697320697320616c72656164792061207265676973746572656420757365604482015261391760f11b60648201526084016107e1565b60405182906001600160a01b0382169033907f994573f14ad3b387b36188da08f32725c8840f8039c7e287413f66c333a63c5b90612bf0908690613b12565b60405180910390a3505050565b612c05612ef3565b6001600160a01b038116612c6a5760405162461bcd60e51b815260206004820152602660248201527f4f776e61626c653a206e6577206f776e657220697320746865207a65726f206160448201526564647265737360d01b60648201526084016107e1565b612c7381612f52565b50565b336000818152600760205260409020546001600160a01b031614612cac5760405162461bcd60e51b81526004016107e1906139e0565b336000818152600660205260409020600201546001600160a01b03169003612d115760405162461bcd60e51b81526020600482015260186024820152772cb7ba9030b9329030b63932b0b23c90383937bb34b232b960411b60448201526064016107e1565b60048054906000612d21836137d2565b9091555050336000908152600760209081526040808320600690925290912090612d4e9060010182613a3e565b50336000908152600660205260409020600101612d6b828261390f565b505033600090815260076020908152604080832054600690925290912060020180546001600160a01b0319166001600160a01b0392909216919091179055565b80518251600091849184911115612dc757600092505050611b55565b60005b81518351612dd89190613b25565b8111612e8e57600160005b8351811015612e6757612e15848281518110612e0157612e0161376c565b01602001516001600160f81b031916612fa2565b6001600160f81b031916612e3d86612e2d84876139c8565b81518110612e0157612e0161376c565b6001600160f81b03191614612e555760009150612e67565b80612e5f816137d2565b915050612de3565b508015612e7b576001945050505050611b55565b5080612e86816137d2565b915050612dca565b50600095945050505050565b600081604051602001612ead919061388f565b6040516020818303038152906040528051906020012083604051602001612ed4919061388f565b6040516020818303038152906040528051906020012014905092915050565b33612efc611b6f565b6001600160a01b031614611b6d5760405162461bcd60e51b815260206004820181905260248201527f4f776e61626c653a2063616c6c6572206973206e6f7420746865206f776e657260448201526064016107e1565b600080546001600160a01b038381166001600160a01b0319831681178455604051919092169283917f8be0079c531659141344cd1fd0a4f28419497f9722a3daafe3b4186f6b6457e09190a35050565b6000604160f883901c10801590612fbe5750605a60f883901c11155b15612fdb57612fd260f883901c6020613b3c565b60f81b92915050565b5090565b828054828255906000526020600020908101928215613025579160200282015b828111156130255782518290613015908261390f565b5091602001919060010190612fff565b50612fdb9291505b80821115612fdb576000613041828261304a565b5060010161302d565b50805461305690613782565b6000825580601f10613066575050565b601f016020900490600052602060002090810190612c7391905b80821115612fdb5760008155600101613080565b634e487b7160e01b600052604160045260246000fd5b604051601f8201601f191681016001600160401b03811182821017156130d2576130d2613094565b604052919050565b600082601f8301126130eb57600080fd5b81356001600160401b0381111561310457613104613094565b613117601f8201601f19166020016130aa565b81815284602083860101111561312c57600080fd5b816020850160208301376000918101602001919091529392505050565b60006020828403121561315b57600080fd5b81356001600160401b0381111561317157600080fd5b61317d848285016130da565b949350505050565b60005b838110156131a0578181015183820152602001613188565b838111156131af576000848401525b50505050565b600081518084526131cd816020860160208601613185565b601f01601f19169290920160200192915050565b600082825180855260208086019550808260051b84010181860160005b8481101561322c57601f1986840301895261321a8383516131b5565b988401989250908301906001016131fe565b5090979650505050505050565b6001600160a01b03169052565b600081518084526020808501945080840160005b8381101561327f5781516001600160a01b03168752958201959082019060010161325a565b509495945050505050565b60008282518085526020808601955060058183821b8501018287016000805b8681101561331657601f1988850381018c5283518051808752908801908887019080891b88018a01865b828110156132ff57858a83030184526132ed8286516131b5565b948c0194938c019391506001016132d3565b509e8a019e975050509387019350506001016132a9565b50919998505050505050505050565b60808152600061333860808301876131e1565b828103602084015261334a8187613246565b9050828103604084015261335e81866131e1565b90508281036060840152613372818561328a565b979650505050505050565b600082601f83011261338e57600080fd5b813560206001600160401b03808311156133aa576133aa613094565b8260051b6133b98382016130aa565b93845285810183019383810190888611156133d357600080fd5b84880192505b8583101561340f578235848111156133f15760008081fd5b6133ff8a87838c01016130da565b83525091840191908401906133d9565b98975050505050505050565b6000806040838503121561342e57600080fd5b82356001600160401b038082111561344557600080fd5b613451868387016130da565b9350602085013591508082111561346757600080fd5b506134748582860161337d565b9150509250929050565b80356001600160a01b038116811461349557600080fd5b919050565b600080604083850312156134ad57600080fd5b6134b68361347e565b915060208301356001600160401b038111156134d157600080fd5b613474858286016130da565b6000602082840312156134ef57600080fd5b6134f88261347e565b9392505050565b600081518084526020808501945080840160005b8381101561327f57815187529582019590820190600101613513565b634e487b7160e01b600052602160045260246000fd5b6002811061356357634e487b7160e01b600052602160045260246000fd5b9052565b6101808152600061357c61018083018f6131b5565b8d60208401528281036040840152613594818e6134ff565b905082810360608401526135a8818d6131e1565b905082810360808401526135bc818c6131e1565b905082810360a08401526135d0818b6131b5565b905082810360c08401526135e4818a61328a565b905082810360e08401526135f881896131e1565b905082810361010084015261360d818861328a565b91505061361e610120830186613239565b61362c610140830185613239565b61363a610160830184613545565b9d9c50505050505050505050505050565b60208101611b558284613545565b600080600080600060a0868803121561367157600080fd5b85356001600160401b038082111561368857600080fd5b61369489838a016130da565b965060208801359150808211156136aa57600080fd5b6136b689838a016130da565b955060408801359150808211156136cc57600080fd5b6136d889838a016130da565b945060608801359150808211156136ee57600080fd5b506136fb8882890161337d565b92505061370a6080870161347e565b90509295509295909350565b6060815260006137296060830186613246565b828103602084015261373b81866131e1565b9050828103604084015261374f81856131e1565b9695505050505050565b6020815260006134f860208301846131e1565b634e487b7160e01b600052603260045260246000fd5b600181811c9082168061379657607f821691505b6020821081036137b657634e487b7160e01b600052602260045260246000fd5b50919050565b634e487b7160e01b600052601160045260246000fd5b6000600182016137e4576137e46137bc565b5060010190565b60008083546137f981613782565b60018281168015613811576001811461382657613855565b60ff1984168752821515830287019450613855565b8760005260208060002060005b8581101561384c5781548a820152908401908201613833565b50505082870194505b50929695505050505050565b6020808252601490820152732cb7ba9030b932903737ba10383937bb34b232b960611b604082015260600190565b600082516138a1818460208701613185565b9190910192915050565b601f8211156138f557600081815260208120601f850160051c810160208610156138d25750805b601f850160051c820191505b818110156138f1578281556001016138de565b5050505b505050565b600019600383901b1c191660019190911b1790565b81516001600160401b0381111561392857613928613094565b61393c816139368454613782565b846138ab565b602080601f83116001811461396b57600084156139595750858301515b61396385826138fa565b8655506138f1565b600085815260208120601f198616915b8281101561399a5788860151825594840194600190910190840161397b565b50858210156139b85787850151600019600388901b60f8161c191681555b5050505050600190811b01905550565b600082198211156139db576139db6137bc565b500190565b602080825260169082015275165bdd48185c99481b9bdd081c9959da5cdd195c995960521b604082015260600190565b604081526000613a2360408301856131b5565b8281036020840152613a3581856131b5565b95945050505050565b818103613a49575050565b613a538254613782565b6001600160401b03811115613a6a57613a6a613094565b613a78816139368454613782565b6000601f821160018114613aa65760008315613a945750848201545b613a9e84826138fa565b855550613b0b565b600085815260209020601f19841690600086815260209020845b83811015613ae05782860154825560019586019590910190602001613ac0565b5085831015613afe5781850154600019600388901b60f8161c191681555b50505060018360011b0184555b5050505050565b6020815260006134f860208301846131b5565b600082821015613b3757613b376137bc565b500390565b600060ff821660ff84168060ff03821115613b5957613b596137bc565b01939250505056fea26469706673582212204c761cf231f5315944f412435414b9afb31ba1a0338e8e5ee3febaa84aff35fc64736f6c634300080f0033",
  "linkReferences": {},
  "deployedLinkReferences": {}
}