{
  "_format": "hh-sol-artifact-1",
  "contractName": "certification_system",
  "sourceName": "contracts/certification_system.sol",
  "abi": [
    {
      "anonymous": false,
      "inputs": [
        {
          "indexed": true,
          "internalType": "address",
          "name": "takerAddress",
          "type": "address"
        },
        {
          "indexed": true,
          "internalType": "address",
          "name": "giverAddress",
          "type": "address"
        },
        {
          "indexed": false,
          "internalType": "string",
          "name": "courseName",
          "type": "string"
        },
        {
          "indexed": false,
          "internalType": "string",
          "name": "certificateUrl",
          "type": "string"
        }
      ],
      "name": "CertificateIssued",
      "type": "event"
    },
    {
      "anonymous": false,
      "inputs": [
        {
          "indexed": true,
          "internalType": "address",
          "name": "takerAddress",
          "type": "address"
        },
        {
          "indexed": true,
          "internalType": "address",
          "name": "giverAddress",
          "type": "address"
        },
        {
          "indexed": false,
          "internalType": "string",
          "name": "courseName",
          "type": "string"
        },
        {
          "indexed": false,
          "internalType": "string",
          "name": "certificateUrl",
          "type": "string"
        }
      ],
      "name": "CertificateSend",
      "type": "event"
    },
    {
      "anonymous": false,
      "inputs": [
        {
          "indexed": true,
          "internalType": "address",
          "name": "inviter",
          "type": "address"
        },
        {
          "indexed": true,
          "internalType": "address",
          "name": "invitee",
          "type": "address"
        },
        {
          "indexed": false,
          "internalType": "string",
          "name": "message",
          "type": "string"
        }
      ],
      "name": "InvitationSent",
      "type": "event"
    },
    {
      "anonymous": false,
      "inputs": [
        {
          "indexed": true,
          "internalType": "address",
          "name": "previousOwner",
          "type": "address"
        },
        {
          "indexed": true,
          "internalType": "address",
          "name": "newOwner",
          "type": "address"
        }
      ],
      "name": "OwnershipTransferred",
      "type": "event"
    },
    {
      "inputs": [
        {
          "internalType": "string",
          "name": "_institute_name",
          "type": "string"
        }
      ],
      "name": "become_provider",
      "outputs": [],
      "stateMutability": "nonpayable",
      "type": "function"
    },
    {
      "inputs": [
        {
          "internalType": "string",
          "name": "_course_name",
          "type": "string"
        },
        {
          "internalType": "string[]",
          "name": "_skills",
          "type": "string[]"
        }
      ],
      "name": "create_certificate",
      "outputs": [],
      "stateMutability": "nonpayable",
      "type": "function"
    },
    {
      "inputs": [
        {
          "internalType": "string",
          "name": "keyword",
          "type": "string"
        }
      ],
      "name": "find_certificates",
      "outputs": [
        {
          "internalType": "string[]",
          "name": "Certificates",
          "type": "string[]"
        },
        {
          "internalType": "address[]",
          "name": "Providers",
          "type": "address[]"
        },
        {
          "internalType": "string[]",
          "name": "Institutes",
          "type": "string[]"
        },
        {
          "internalType": "string[][]",
          "name": "Skills",
          "type": "string[][]"
        }
      ],
      "stateMutability": "view",
      "type": "function"
    },
    {
      "inputs": [
        {
          "internalType": "string",
          "name": "keyword",
          "type": "string"
        }
      ],
      "name": "find_skills",
      "outputs": [
        {
          "internalType": "string[]",
          "name": "Skills",
          "type": "string[]"
        }
      ],
      "stateMutability": "view",
      "type": "function"
    },
    {
      "inputs": [],
      "name": "get_received_Certificates",
      "outputs": [
        {
          "internalType": "address[]",
          "name": "_sended_addresses",
          "type": "address[]"
        },
        {
          "internalType": "string[]",
          "name": "_course_names",
          "type": "string[]"
        },
        {
          "internalType": "string[]",
          "name": "_certificate_urls",
          "type": "string[]"
        }
      ],
      "stateMutability": "view",
      "type": "function"
    },
    {
      "inputs": [
        {
          "internalType": "address",
          "name": "_user_address",
          "type": "address"
        }
      ],
      "name": "get_user_certificates",
      "outputs": [
        {
          "internalType": "string",
          "name": "candidiateName",
          "type": "string"
        },
        {
          "internalType": "uint256",
          "name": "user_id",
          "type": "uint256"
        },
        {
          "internalType": "uint256[]",
          "name": "issueDates",
          "type": "uint256[]"
        },
        {
          "internalType": "string[]",
          "name": "courseNames",
          "type": "string[]"
        },
        {
          "internalType": "string[]",
          "name": "courseLengths",
          "type": "string[]"
        },
        {
          "internalType": "string",
          "name": "instituteName",
          "type": "string"
        },
        {
          "internalType": "string[][]",
          "name": "_skills",
          "type": "string[][]"
        },
        {
          "internalType": "string[]",
          "name": "certificateUrls",
          "type": "string[]"
        },
        {
          "internalType": "string[][]",
          "name": "instructorsNames",
          "type": "string[][]"
        },
        {
          "internalType": "address",
          "name": "takerAddress",
          "type": "address"
        },
        {
          "internalType": "address",
          "name": "giverAddress",
          "type": "address"
        },
        {
          "internalType": "enum certification_system.user_status",
          "name": "status",
          "type": "uint8"
        }
      ],
      "stateMutability": "view",
      "type": "function"
    },
    {
      "inputs": [
        {
          "internalType": "string",
          "name": "_course_name",
          "type": "string"
        },
        {
          "internalType": "string",
          "name": "_course_length",
          "type": "string"
        },
        {
          "internalType": "string",
          "name": "_certificate_url",
          "type": "string"
        },
        {
          "internalType": "string[]",
          "name": "_instructors_names",
          "type": "string[]"
        },
        {
          "internalType": "address",
          "name": "_taker_address",
          "type": "address"
        }
      ],
      "name": "give_certificate_to_user",
      "outputs": [],
      "stateMutability": "nonpayable",
      "type": "function"
    },
    {
      "inputs": [
        {
          "internalType": "address",
          "name": "_address",
          "type": "address"
        },
        {
          "internalType": "string",
          "name": "_message",
          "type": "string"
        }
      ],
      "name": "invite_others",
      "outputs": [],
      "stateMutability": "nonpayable",
      "type": "function"
    },
    {
      "inputs": [
        {
          "internalType": "address",
          "name": "_address",
          "type": "address"
        },
        {
          "internalType": "string",
          "name": "_course_name",
          "type": "string"
        }
      ],
      "name": "is_user_certified",
      "outputs": [
        {
          "internalType": "enum certification_system.user_status",
          "name": "",
          "type": "uint8"
        }
      ],
      "stateMutability": "view",
      "type": "function"
    },
    {
      "inputs": [],
      "name": "owner",
      "outputs": [
        {
          "internalType": "address",
          "name": "",
          "type": "address"
        }
      ],
      "stateMutability": "view",
      "type": "function"
    },
    {
      "inputs": [
        {
          "internalType": "string",
          "name": "_name",
          "type": "string"
        }
      ],
      "name": "register_yourself",
      "outputs": [],
      "stateMutability": "nonpayable",
      "type": "function"
    },
    {
      "inputs": [],
      "name": "renounceOwnership",
      "outputs": [],
      "stateMutability": "nonpayable",
      "type": "function"
    },
    {
      "inputs": [
        {
          "internalType": "address",
          "name": "_to",
          "type": "address"
        },
        {
          "internalType": "string",
          "name": "_course_name",
          "type": "string"
        }
      ],
      "name": "send_certificate",
      "outputs": [],
      "stateMutability": "nonpayable",
      "type": "function"
    },
    {
      "inputs": [
        {
          "internalType": "address",
          "name": "newOwner",
          "type": "address"
        }
      ],
      "name": "transferOwnership",
      "outputs": [],
      "stateMutability": "nonpayable",
      "type": "function"
    }
  ],
  "bytecode": "0x60806040523480156200001157600080fd5b506200001d3362000023565b62000073565b600080546001600160a01b038381166001600160a01b0319831681178455604051919092169283917f8be0079c531659141344cd1fd0a4f28419497f9722a3daafe3b4186f6b6457e09190a35050565b61381780620000836000396000f3fe608060405234801561001057600080fd5b50600436106100ea5760003560e01c8063a232faf91161008c578063b7ee804b11610066578063b7ee804b146101fb578063d84322551461020e578063f2fde38b14610221578063fbd465b21461023457600080fd5b8063a232faf9146101b1578063a8d38215146101c4578063ac1e9135146101db57600080fd5b806365d37ec8116100c857806365d37ec8146101435780636ec247a51461016e578063715018a61461018e5780638da5cb5b1461019657600080fd5b806313e7e419146100ef5780632ad5c25c1461011b578063482f9cab14610130575b600080fd5b6101026100fd366004612e03565b610247565b6040516101129493929190612fd2565b60405180910390f35b61012e6101293660046130c8565b6107d3565b005b61012e61013e366004613147565b610cf8565b61015661015136600461318a565b611092565b6040516101129c9b9a99989796959493929190613214565b61018161017c366004613147565b6119a6565b6040516101129190613302565b61012e6119eb565b6000546040516001600160a01b039091168152602001610112565b61012e6101bf366004613310565b6119ff565b6101cc61206e565b604051610112939291906133cd565b6101ee6101e9366004612e03565b6123b8565b6040516101129190613410565b61012e610209366004612e03565b612661565b61012e61021c366004613147565b61277d565b61012e61022f36600461318a565b6128cc565b61012e610242366004612e03565b612945565b6060806060806060806060806000805b600254811015610335576103106002828154811061027757610277613423565b90600052602060002001805461028c90613439565b80601f01602080910402602001604051908101604052809291908181526020018280546102b890613439565b80156103055780601f106102da57610100808354040283529160200191610305565b820191906000526020600020905b8154815290600101906020018083116102e857829003601f168201915b50505050508c612a6a565b15610323578161031f81613489565b9250505b8061032d81613489565b915050610257565b50806001600160401b0381111561034e5761034e612d4e565b60405190808252806020026020018201604052801561038157816020015b606081526020019060019003908161036c5790505b509450806001600160401b0381111561039c5761039c612d4e565b6040519080825280602002602001820160405280156103c5578160200160208202803683370190505b509350806001600160401b038111156103e0576103e0612d4e565b60405190808252806020026020018201604052801561041357816020015b60608152602001906001900390816103fe5790505b509250806001600160401b0381111561042e5761042e612d4e565b60405190808252806020026020018201604052801561046157816020015b606081526020019060019003908161044c5790505b5091506000905060005b6002548110156107c25761048b6002828154811061027757610277613423565b156107b057600281815481106104a3576104a3613423565b9060005260206000200180546104b890613439565b80601f01602080910402602001604051908101604052809291908181526020018280546104e490613439565b80156105315780601f1061050657610100808354040283529160200191610531565b820191906000526020600020905b81548152906001019060200180831161051457829003601f168201915b505050505086838151811061054857610548613423565b6020908102919091018101919091523360009081526005909152604090206002015485516001600160a01b0390911690819087908590811061058c5761058c613423565b6001600160a01b03928316602091820292909201810191909152908216600090815260059091526040902060010180546105c590613439565b80601f01602080910402602001604051908101604052809291908181526020018280546105f190613439565b801561063e5780601f106106135761010080835404028352916020019161063e565b820191906000526020600020905b81548152906001019060200180831161062157829003601f168201915b505050505085848151811061065557610655613423565b602090810291909101810191909152336000908152600a90915260408120600280548590811061068757610687613423565b9060005260206000200160405161069e91906134a2565b9081526020016040518091039020600401905080805480602002602001604051908101604052809291908181526020016000905b8282101561077e5783829060005260206000200180546106f190613439565b80601f016020809104026020016040519081016040528092919081815260200182805461071d90613439565b801561076a5780601f1061073f5761010080835404028352916020019161076a565b820191906000526020600020905b81548152906001019060200180831161074d57829003601f168201915b5050505050815260200190600101906106d2565b5050505085858151811061079457610794613423565b602002602001018190525083806107aa90613489565b94505050505b806107ba81613489565b91505061046b565b509399929850909650945092505050565b336000818152600560205260409020600201546001600160a01b0316146108385760405162461bcd60e51b81526020600482015260146024820152732cb7ba9030b932903737ba10383937bb34b232b960611b60448201526064015b60405180910390fd5b6040805160a081018252838152336000908152600560209081529281206001018054919383019161086890613439565b80601f016020809104026020016040519081016040528092919081815260200182805461089490613439565b80156108e15780601f106108b6576101008083540402835291602001916108e1565b820191906000526020600020905b8154815290600101906020018083116108c457829003601f168201915b5050509183525050336000908152600560209081526040909120805491909201919061090c90613439565b80601f016020809104026020016040519081016040528092919081815260200182805461093890613439565b80156109855780601f1061095a57610100808354040283529160200191610985565b820191906000526020600020905b81548152906001019060200180831161096857829003601f168201915b5050509183525050336000818152600560208181526040808420600201546001600160a01b03168287015294850188905292825260048352928120805460018101825590825291902083519394508493919092029091019081906109e99082613567565b50602082015160018201906109fe9082613567565b5060408201516002820190610a139082613567565b5060608201516003820180546001600160a01b0319166001600160a01b0390921691909117905560808201518051610a55916004840191602090910190612c99565b5050600280546001810182556000919091527f405787fa12a823e0f2b7631cc41b3ba8828b3321ca811111fa75cd3aa3bb5ace019050610a958482613567565b50336000908152600560205260408120600301805491610ab483613489565b9091555050336000908152600a6020526040908190209051849190610ada908390613626565b90815260405190819003602001902090610af49082613567565b50336000908152600a6020526040908190209051839190610b16908690613626565b90815260200160405180910390206004019080519060200190610b3a929190612c99565b5060015482516000610b4c8284613642565b6001600160401b03811115610b6357610b63612d4e565b604051908082528060200260200182016040528015610b9657816020015b6060815260200190600190039081610b815790505b50905060005b83811015610c7a5760018181548110610bb757610bb7613423565b906000526020600020018054610bcc90613439565b80601f0160208091040260200160405190810160405280929190818152602001828054610bf890613439565b8015610c455780601f10610c1a57610100808354040283529160200191610c45565b820191906000526020600020905b815481529060010190602001808311610c2857829003601f168201915b5050505050828281518110610c5c57610c5c613423565b60200260200101819052508080610c7290613489565b915050610b9c565b5060005b82811015610cdb57858181518110610c9857610c98613423565b6020026020010151828286610cad9190613642565b81518110610cbd57610cbd613423565b60200260200101819052508080610cd390613489565b915050610c7e565b508051610cef906001906020840190612c99565b50505050505050565b336000818152600660205260409020546001600160a01b031614610d2e5760405162461bcd60e51b815260040161082f9061365a565b6001600160a01b0380831660008181526006602052604090205490911614610d985760405162461bcd60e51b815260206004820152601a60248201527f7265636569766572206973206e6f742072656769737465726564000000000000604482015260640161082f565b600133600090815260096020526040908190209051610db8908490613626565b9081526040519081900360200190206002015460ff166001811115610ddf57610ddf6131dc565b14610e3a5760405162461bcd60e51b815260206004820152602560248201527f596f7520617265206e6f742063657274696669656420696e207468697320636f6044820152643ab939b29760d91b606482015260840161082f565b6040805160608101825233808252602080830185905260009182526009905282812083519193830191610e6e908690613626565b90815260200160405180910390206001018054610e8a90613439565b80601f0160208091040260200160405190810160405280929190818152602001828054610eb690613439565b8015610f035780601f10610ed857610100808354040283529160200191610f03565b820191906000526020600020905b815481529060010190602001808311610ee657829003601f168201915b5050509190925250506001600160a01b038481166000908152600b60209081526040822080546001808201835591845292829020855160039094020180546001600160a01b03191693909416929092178355830151929350839290820190610f6b9082613567565b5060408201516002820190610f809082613567565b505033600090815260096020526040808220905191925090610fa3908590613626565b90815260200160405180910390206001018054610fbf90613439565b80601f0160208091040260200160405190810160405280929190818152602001828054610feb90613439565b80156110385780601f1061100d57610100808354040283529160200191611038565b820191906000526020600020905b81548152906001019060200180831161101b57829003601f168201915b50505050509050336001600160a01b0316846001600160a01b03167f85d62ad17175a6e0841001b0885d37b0fecee35b1d67ca97e146808dcf3a7d39858460405161108492919061368a565b60405180910390a350505050565b6001600160a01b03811660009081526007602090815260408083206008909252822080546060939284928392839283928392839283928a928392839290916110d990613439565b80601f016020809104026020016040519081016040528092919081815260200182805461110590613439565b80156111525780601f1061112757610100808354040283529160200191611152565b820191906000526020600020905b81548152906001019060200180831161113557829003601f168201915b50505050509c50600860008f6001600160a01b03166001600160a01b03168152602001908152602001600020600301549b5080805490506001600160401b038111156111a0576111a0612d4e565b6040519080825280602002602001820160405280156111c9578160200160208202803683370190505b508154909b506001600160401b038111156111e6576111e6612d4e565b60405190808252806020026020018201604052801561121957816020015b60608152602001906001900390816112045790505b508154909a506001600160401b0381111561123657611236612d4e565b60405190808252806020026020018201604052801561126957816020015b60608152602001906001900390816112545790505b506001600160a01b038f1660009081526008602052604090206002018054919a509061129490613439565b80601f01602080910402602001604051908101604052809291908181526020018280546112c090613439565b801561130d5780601f106112e25761010080835404028352916020019161130d565b820191906000526020600020905b8154815290600101906020018083116112f057829003601f168201915b50508454939b5050506001600160401b03821115905061132f5761132f612d4e565b60405190808252806020026020018201604052801561136257816020015b606081526020019060019003908161134d5790505b5081549097506001600160401b0381111561137f5761137f612d4e565b6040519080825280602002602001820160405280156113b257816020015b606081526020019060019003908161139d5790505b5081549096506001600160401b038111156113cf576113cf612d4e565b60405190808252806020026020018201604052801561140257816020015b60608152602001906001900390816113ed5790505b509450600860008f6001600160a01b03166001600160a01b0316815260200190815260200160002060040160009054906101000a90046001600160a01b03169350600860008f6001600160a01b03166001600160a01b0316815260200190815260200160002060050160009054906101000a90046001600160a01b03169250600860008f6001600160a01b03166001600160a01b0316815260200190815260200160002060050160149054906101000a900460ff16915060005b8154811015611995578181815481106114d7576114d7613423565b9060005260206000209060060201600001548c82815181106114fb576114fb613423565b60200260200101818152505081818154811061151957611519613423565b9060005260206000209060060201600101805461153590613439565b80601f016020809104026020016040519081016040528092919081815260200182805461156190613439565b80156115ae5780601f10611583576101008083540402835291602001916115ae565b820191906000526020600020905b81548152906001019060200180831161159157829003601f168201915b50505050508b82815181106115c5576115c5613423565b60200260200101819052508181815481106115e2576115e2613423565b9060005260206000209060060201600301805480602002602001604051908101604052809291908181526020016000905b828210156116bf57838290600052602060002001805461163290613439565b80601f016020809104026020016040519081016040528092919081815260200182805461165e90613439565b80156116ab5780601f10611680576101008083540402835291602001916116ab565b820191906000526020600020905b81548152906001019060200180831161168e57829003601f168201915b505050505081526020019060010190611613565b505050508882815181106116d5576116d5613423565b60200260200101819052508181815481106116f2576116f2613423565b9060005260206000209060060201600201805461170e90613439565b80601f016020809104026020016040519081016040528092919081815260200182805461173a90613439565b80156117875780601f1061175c57610100808354040283529160200191611787565b820191906000526020600020905b81548152906001019060200180831161176a57829003601f168201915b50505050508a828151811061179e5761179e613423565b60200260200101819052508181815481106117bb576117bb613423565b906000526020600020906006020160040180546117d790613439565b80601f016020809104026020016040519081016040528092919081815260200182805461180390613439565b80156118505780601f1061182557610100808354040283529160200191611850565b820191906000526020600020905b81548152906001019060200180831161183357829003601f168201915b505050505087828151811061186757611867613423565b602002602001018190525081818154811061188457611884613423565b9060005260206000209060060201600501805480602002602001604051908101604052809291908181526020016000905b828210156119615783829060005260206000200180546118d490613439565b80601f016020809104026020016040519081016040528092919081815260200182805461190090613439565b801561194d5780601f106119225761010080835404028352916020019161194d565b820191906000526020600020905b81548152906001019060200180831161193057829003601f168201915b5050505050815260200190600101906118b5565b5050505086828151811061197757611977613423565b6020026020010181905250808061198d90613489565b9150506114bc565b505091939597999b5091939597999b565b6001600160a01b03821660009081526009602052604080822090516119cc908490613626565b9081526040519081900360200190206002015460ff1690505b92915050565b6119f3612b59565b6119fd6000612bb3565b565b336000818152600560205260409020600201546001600160a01b031614611a5f5760405162461bcd60e51b81526020600482015260146024820152732cb7ba9030b932903737ba10383937bb34b232b960611b604482015260640161082f565b806001600160a01b0316611a7b6000546001600160a01b031690565b6001600160a01b031603611ad15760405162461bcd60e51b815260206004820152601d60248201527f6f776e65722063616e277420676976652063657274696669636174652e000000604482015260640161082f565b6001600160a01b0380821660008181526006602052604090205490911614611b3b5760405162461bcd60e51b815260206004820152601860248201527f54616b6572206973206e6f7420726567697374657265642e0000000000000000604482015260640161082f565b336000908152600a6020526040908190209051611bfc9190611b5e908890613626565b9081526040519081900360200190208054611b7890613439565b80601f0160208091040260200160405190810160405280929190818152602001828054611ba490613439565b8015611bf15780601f10611bc657610100808354040283529160200191611bf1565b820191906000526020600020905b815481529060010190602001808311611bd457829003601f168201915b505050505086612c03565b611c3b5760405162461bcd60e51b815260206004820152601060248201526f10dbdd5c9cd9481b9bdd08199bdd5b9960821b604482015260640161082f565b60006040518060c00160405280428152602001878152602001868152602001600a6000336001600160a01b03166001600160a01b0316815260200190815260200160002088604051611c8d9190613626565b9081526020016040518091039020600401805480602002602001604051908101604052809291908181526020016000905b82821015611d6a578382906000526020600020018054611cdd90613439565b80601f0160208091040260200160405190810160405280929190818152602001828054611d0990613439565b8015611d565780601f10611d2b57610100808354040283529160200191611d56565b820191906000526020600020905b815481529060010190602001808311611d3957829003601f168201915b505050505081526020019060010190611cbe565b50505090825250602080820187905260409182018690526001600160a01b03851660009081526007825291822080546001818101835591845292829020845160069094020192835590830151929350839290820190611dc99082613567565b5060408201516002820190611dde9082613567565b5060608201518051611dfa916003840191602090910190612c99565b5060808201516004820190611e0f9082613567565b5060a08201518051611e2b916005840191602090910190612c99565b5050506001600160a01b0382166000908152600660209081526040808320600890925290912090611e5f90600101826136b8565b503360009081526005602090815260408083206001600160a01b0386168452600890925290912060010190611e9490826136b8565b503360009081526005602090815260408083206001600160a01b0386168452600890925290912060020190611ecc90600101826136b8565b506001600160a01b038216600081815260066020908152604080832060020154600883528184206003810191909155600581018054600490920180546001600160a01b0319169096179095556001600160a81b0319163360ff60a01b191617600160a01b17909355600990528190209051879190611f4b908390613626565b90815260405190819003602001902090611f659082613567565b506001600160a01b038216600090815260096020526040908190209051859190611f90908990613626565b90815260200160405180910390206001019081611fad9190613567565b506001600160a01b03821660009081526009602052604090819020905160019190611fd9908990613626565b908152604051908190036020019020600201805460ff191660018381811115612004576120046131dc565b021790555033600090815260056020526040908190206002015490516001600160a01b03918216918416907f3bba53945d04b7fb148d571bad2069f7f69e5ef5802e63e4aa149323cafd13a29061205e908a90899061368a565b60405180910390a3505050505050565b336000908152600b602052604090205460609081908190806001600160401b0381111561209d5761209d612d4e565b6040519080825280602002602001820160405280156120c6578160200160208202803683370190505b509350806001600160401b038111156120e1576120e1612d4e565b60405190808252806020026020018201604052801561211457816020015b60608152602001906001900390816120ff5790505b509250806001600160401b0381111561212f5761212f612d4e565b60405190808252806020026020018201604052801561216257816020015b606081526020019060019003908161214d5790505b50915060005b818110156123b157336000908152600b6020526040902080548290811061219157612191613423565b600091825260209091206003909102015485516001600160a01b03909116908690839081106121c2576121c2613423565b6001600160a01b03909216602092830291909101820152336000908152600b909152604090208054829081106121fa576121fa613423565b9060005260206000209060030201600101805461221690613439565b80601f016020809104026020016040519081016040528092919081815260200182805461224290613439565b801561228f5780601f106122645761010080835404028352916020019161228f565b820191906000526020600020905b81548152906001019060200180831161227257829003601f168201915b50505050508482815181106122a6576122a6613423565b6020026020010181905250600b6000336001600160a01b03166001600160a01b0316815260200190815260200160002081815481106122e7576122e7613423565b9060005260206000209060030201600201805461230390613439565b80601f016020809104026020016040519081016040528092919081815260200182805461232f90613439565b801561237c5780601f106123515761010080835404028352916020019161237c565b820191906000526020600020905b81548152906001019060200180831161235f57829003601f168201915b505050505083828151811061239357612393613423565b602002602001018190525080806123a990613489565b915050612168565b5050909192565b60606000806001805490506001600160401b038111156123da576123da612d4e565b60405190808252806020026020018201604052801561240d57816020015b60608152602001906001900390816123f85790505b50905060005b6001548110156125b5576124cc6001828154811061243357612433613423565b90600052602060002001805461244890613439565b80601f016020809104026020016040519081016040528092919081815260200182805461247490613439565b80156124c15780601f10612496576101008083540402835291602001916124c1565b820191906000526020600020905b8154815290600101906020018083116124a457829003601f168201915b505050505086612a6a565b156125a357600181815481106124e4576124e4613423565b9060005260206000200180546124f990613439565b80601f016020809104026020016040519081016040528092919081815260200182805461252590613439565b80156125725780601f1061254757610100808354040283529160200191612572565b820191906000526020600020905b81548152906001019060200180831161255557829003601f168201915b505050505082848151811061258957612589613423565b6020026020010181905250828061259f90613489565b9350505b806125ad81613489565b915050612413565b50816001600160401b038111156125ce576125ce612d4e565b60405190808252806020026020018201604052801561260157816020015b60608152602001906001900390816125ec5790505b50925060005b828110156126595781818151811061262157612621613423565b602002602001015184828151811061263b5761263b613423565b6020026020010181905250808061265190613489565b915050612607565b505050919050565b6000546001600160a01b031633036126bb5760405162461bcd60e51b815260206004820152601760248201527f4f776e65722063616e277420646f20616e797468696e67000000000000000000604482015260640161082f565b336000818152600660205260409020546001600160a01b0316036127215760405162461bcd60e51b815260206004820152601b60248201527f596f75206861766520616c726561647920726567697374657265640000000000604482015260640161082f565b6003805490600061273183613489565b909155505033600081815260066020526040902080546001600160a01b03191690911781556001016127638282613567565b505060035433600090815260066020526040902060020155565b336000818152600660205260409020546001600160a01b0316146127b35760405162461bcd60e51b815260040161082f9061365a565b336001600160a01b0383160361280b5760405162461bcd60e51b815260206004820152601a60248201527f596f752063616e277420696e7669746520796f757273656c662e000000000000604482015260640161082f565b6001600160a01b03808316600081815260066020526040902054909116036128805760405162461bcd60e51b815260206004820152602260248201527f5468697320697320616c72656164792061207265676973746572656420757365604482015261391760f11b606482015260840161082f565b60405182906001600160a01b0382169033907f994573f14ad3b387b36188da08f32725c8840f8039c7e287413f66c333a63c5b906128bf908690613792565b60405180910390a3505050565b6128d4612b59565b6001600160a01b0381166129395760405162461bcd60e51b815260206004820152602660248201527f4f776e61626c653a206e6577206f776e657220697320746865207a65726f206160448201526564647265737360d01b606482015260840161082f565b61294281612bb3565b50565b336000818152600660205260409020546001600160a01b03161461297b5760405162461bcd60e51b815260040161082f9061365a565b336000818152600560205260409020600201546001600160a01b031690036129e55760405162461bcd60e51b815260206004820152601860248201527f596f752061726520616c72656164792070726f76696465720000000000000000604482015260640161082f565b336000908152600660209081526040808320600590925290912090612a0d90600101826136b8565b50336000908152600560205260409020600101612a2a8282613567565b505033600090815260066020908152604080832054600590925290912060020180546001600160a01b0319166001600160a01b0392909216919091179055565b80518251600091849184911115612a86576000925050506119e5565b60005b81518351612a9791906137a5565b8111612b4d57600160005b8351811015612b2657612ad4848281518110612ac057612ac0613423565b01602001516001600160f81b031916612c5c565b6001600160f81b031916612afc86612aec8487613642565b81518110612ac057612ac0613423565b6001600160f81b03191614612b145760009150612b26565b80612b1e81613489565b915050612aa2565b508015612b3a5760019450505050506119e5565b5080612b4581613489565b915050612a89565b50600095945050505050565b6000546001600160a01b031633146119fd5760405162461bcd60e51b815260206004820181905260248201527f4f776e61626c653a2063616c6c6572206973206e6f7420746865206f776e6572604482015260640161082f565b600080546001600160a01b038381166001600160a01b0319831681178455604051919092169283917f8be0079c531659141344cd1fd0a4f28419497f9722a3daafe3b4186f6b6457e09190a35050565b600081604051602001612c169190613626565b6040516020818303038152906040528051906020012083604051602001612c3d9190613626565b6040516020818303038152906040528051906020012014905092915050565b6000604160f883901c10801590612c785750605a60f883901c11155b15612c9557612c8c60f883901c60206137bc565b60f81b92915050565b5090565b828054828255906000526020600020908101928215612cdf579160200282015b82811115612cdf5782518290612ccf9082613567565b5091602001919060010190612cb9565b50612c959291505b80821115612c95576000612cfb8282612d04565b50600101612ce7565b508054612d1090613439565b6000825580601f10612d20575050565b601f01602090049060005260206000209081019061294291905b80821115612c955760008155600101612d3a565b634e487b7160e01b600052604160045260246000fd5b604051601f8201601f191681016001600160401b0381118282101715612d8c57612d8c612d4e565b604052919050565b600082601f830112612da557600080fd5b81356001600160401b03811115612dbe57612dbe612d4e565b612dd1601f8201601f1916602001612d64565b818152846020838601011115612de657600080fd5b816020850160208301376000918101602001919091529392505050565b600060208284031215612e1557600080fd5b81356001600160401b03811115612e2b57600080fd5b612e3784828501612d94565b949350505050565b60005b83811015612e5a578181015183820152602001612e42565b83811115612e69576000848401525b50505050565b60008151808452612e87816020860160208601612e3f565b601f01601f19169290920160200192915050565b600082825180855260208086019550808260051b84010181860160005b84811015612ee657601f19868403018952612ed4838351612e6f565b98840198925090830190600101612eb8565b5090979650505050505050565b600081518084526020808501945080840160005b83811015612f2c5781516001600160a01b031687529582019590820190600101612f07565b509495945050505050565b60008282518085526020808601955060058183821b8501018287016000805b86811015612fc357601f1988850381018c5283518051808752908801908887019080891b88018a01865b82811015612fac57858a8303018452612f9a828651612e6f565b948c0194938c01939150600101612f80565b509e8a019e97505050938701935050600101612f56565b50919998505050505050505050565b608081526000612fe56080830187612e9b565b8281036020840152612ff78187612ef3565b9050828103604084015261300b8186612e9b565b9050828103606084015261301f8185612f37565b979650505050505050565b600082601f83011261303b57600080fd5b813560206001600160401b038083111561305757613057612d4e565b8260051b613066838201612d64565b938452858101830193838101908886111561308057600080fd5b84880192505b858310156130bc5782358481111561309e5760008081fd5b6130ac8a87838c0101612d94565b8352509184019190840190613086565b98975050505050505050565b600080604083850312156130db57600080fd5b82356001600160401b03808211156130f257600080fd5b6130fe86838701612d94565b9350602085013591508082111561311457600080fd5b506131218582860161302a565b9150509250929050565b80356001600160a01b038116811461314257600080fd5b919050565b6000806040838503121561315a57600080fd5b6131638361312b565b915060208301356001600160401b0381111561317e57600080fd5b61312185828601612d94565b60006020828403121561319c57600080fd5b6131a58261312b565b9392505050565b600081518084526020808501945080840160005b83811015612f2c578151875295820195908201906001016131c0565b634e487b7160e01b600052602160045260246000fd5b6002811061321057634e487b7160e01b600052602160045260246000fd5b9052565b6101808152600061322961018083018f612e6f565b8d60208401528281036040840152613241818e6131ac565b90508281036060840152613255818d612e9b565b90508281036080840152613269818c612e9b565b905082810360a084015261327d818b612e6f565b905082810360c0840152613291818a612f37565b905082810360e08401526132a58189612e9b565b90508281036101008401526132ba8188612f37565b9150506132d36101208301866001600160a01b03169052565b6001600160a01b0384166101408301526132f16101608301846131f2565b9d9c50505050505050505050505050565b602081016119e582846131f2565b600080600080600060a0868803121561332857600080fd5b85356001600160401b038082111561333f57600080fd5b61334b89838a01612d94565b9650602088013591508082111561336157600080fd5b61336d89838a01612d94565b9550604088013591508082111561338357600080fd5b61338f89838a01612d94565b945060608801359150808211156133a557600080fd5b506133b28882890161302a565b9250506133c16080870161312b565b90509295509295909350565b6060815260006133e06060830186612ef3565b82810360208401526133f28186612e9b565b905082810360408401526134068185612e9b565b9695505050505050565b6020815260006131a56020830184612e9b565b634e487b7160e01b600052603260045260246000fd5b600181811c9082168061344d57607f821691505b60208210810361346d57634e487b7160e01b600052602260045260246000fd5b50919050565b634e487b7160e01b600052601160045260246000fd5b60006001820161349b5761349b613473565b5060010190565b60008083546134b081613439565b600182811680156134c857600181146134dd5761350c565b60ff198416875282151583028701945061350c565b8760005260208060002060005b858110156135035781548a8201529084019082016134ea565b50505082870194505b50929695505050505050565b601f82111561356257600081815260208120601f850160051c8101602086101561353f5750805b601f850160051c820191505b8181101561355e5782815560010161354b565b5050505b505050565b81516001600160401b0381111561358057613580612d4e565b6135948161358e8454613439565b84613518565b602080601f8311600181146135c957600084156135b15750858301515b600019600386901b1c1916600185901b17855561355e565b600085815260208120601f198616915b828110156135f8578886015182559484019460019091019084016135d9565b50858210156136165787850151600019600388901b60f8161c191681555b5050505050600190811b01905550565b60008251613638818460208701612e3f565b9190910192915050565b6000821982111561365557613655613473565b500190565b602080825260169082015275165bdd48185c99481b9bdd081c9959da5cdd195c995960521b604082015260600190565b60408152600061369d6040830185612e6f565b82810360208401526136af8185612e6f565b95945050505050565b8181036136c3575050565b6136cd8254613439565b6001600160401b038111156136e4576136e4612d4e565b6136f28161358e8454613439565b6000601f821160018114613726576000831561370e5750848201545b600019600385901b1c1916600184901b17845561378b565b600085815260209020601f19841690600086815260209020845b838110156137605782860154825560019586019590910190602001613740565b508583101561377e5781850154600019600388901b60f8161c191681555b50505060018360011b0184555b5050505050565b6020815260006131a56020830184612e6f565b6000828210156137b7576137b7613473565b500390565b600060ff821660ff84168060ff038211156137d9576137d9613473565b01939250505056fea264697066735822122070beea6ab22369eaad219c00f1d4eebd9e52e7e4efbd2178be41ff5492cbc96864736f6c634300080f0033",
  "linkReferences": {},
  "deployedLinkReferences": {}
}