{
  "_format": "hh-sol-artifact-1",
  "contractName": "certification_system",
  "sourceName": "contracts/certification_system.sol",
  "abi": [
    {
      "anonymous": false,
      "inputs": [
        {
          "indexed": true,
          "internalType": "address",
          "name": "takerAddress",
          "type": "address"
        },
        {
          "indexed": true,
          "internalType": "address",
          "name": "giverAddress",
          "type": "address"
        },
        {
          "indexed": false,
          "internalType": "string",
          "name": "courseName",
          "type": "string"
        },
        {
          "indexed": false,
          "internalType": "string",
          "name": "certificateUrl",
          "type": "string"
        }
      ],
      "name": "CertificateIssued",
      "type": "event"
    },
    {
      "anonymous": false,
      "inputs": [
        {
          "indexed": true,
          "internalType": "address",
          "name": "takerAddress",
          "type": "address"
        },
        {
          "indexed": true,
          "internalType": "address",
          "name": "giverAddress",
          "type": "address"
        },
        {
          "indexed": false,
          "internalType": "string",
          "name": "courseName",
          "type": "string"
        },
        {
          "indexed": false,
          "internalType": "string",
          "name": "certificateUrl",
          "type": "string"
        }
      ],
      "name": "CertificateSend",
      "type": "event"
    },
    {
      "anonymous": false,
      "inputs": [
        {
          "indexed": true,
          "internalType": "address",
          "name": "inviter",
          "type": "address"
        },
        {
          "indexed": true,
          "internalType": "address",
          "name": "invitee",
          "type": "address"
        },
        {
          "indexed": false,
          "internalType": "string",
          "name": "message",
          "type": "string"
        }
      ],
      "name": "InvitationSent",
      "type": "event"
    },
    {
      "anonymous": false,
      "inputs": [
        {
          "indexed": true,
          "internalType": "address",
          "name": "previousOwner",
          "type": "address"
        },
        {
          "indexed": true,
          "internalType": "address",
          "name": "newOwner",
          "type": "address"
        }
      ],
      "name": "OwnershipTransferred",
      "type": "event"
    },
    {
      "inputs": [
        {
          "internalType": "string",
          "name": "_institute_name",
          "type": "string"
        }
      ],
      "name": "become_provider",
      "outputs": [],
      "stateMutability": "nonpayable",
      "type": "function"
    },
    {
      "inputs": [
        {
          "internalType": "string",
          "name": "_course_name",
          "type": "string"
        },
        {
          "internalType": "string[]",
          "name": "_skills",
          "type": "string[]"
        }
      ],
      "name": "create_certificate",
      "outputs": [],
      "stateMutability": "nonpayable",
      "type": "function"
    },
    {
      "inputs": [
        {
          "internalType": "string",
          "name": "keyword",
          "type": "string"
        }
      ],
      "name": "find_certificates",
      "outputs": [
        {
          "internalType": "string[]",
          "name": "Certificates",
          "type": "string[]"
        }
      ],
      "stateMutability": "view",
      "type": "function"
    },
    {
      "inputs": [
        {
          "internalType": "string",
          "name": "keyword",
          "type": "string"
        }
      ],
      "name": "find_skills",
      "outputs": [
        {
          "internalType": "string[]",
          "name": "Skills",
          "type": "string[]"
        }
      ],
      "stateMutability": "view",
      "type": "function"
    },
    {
      "inputs": [],
      "name": "get_received_Certificates",
      "outputs": [
        {
          "internalType": "address[]",
          "name": "_sended_addresses",
          "type": "address[]"
        },
        {
          "internalType": "string[]",
          "name": "_course_names",
          "type": "string[]"
        },
        {
          "internalType": "string[]",
          "name": "_certificate_urls",
          "type": "string[]"
        }
      ],
      "stateMutability": "view",
      "type": "function"
    },
    {
      "inputs": [
        {
          "internalType": "address",
          "name": "_user_address",
          "type": "address"
        }
      ],
      "name": "get_user_certificates",
      "outputs": [
        {
          "internalType": "string",
          "name": "candidiateName",
          "type": "string"
        },
        {
          "internalType": "uint256",
          "name": "user_id",
          "type": "uint256"
        },
        {
          "internalType": "uint256[]",
          "name": "issueDates",
          "type": "uint256[]"
        },
        {
          "internalType": "string[]",
          "name": "courseNames",
          "type": "string[]"
        },
        {
          "internalType": "string[]",
          "name": "courseLengths",
          "type": "string[]"
        },
        {
          "internalType": "string",
          "name": "instituteName",
          "type": "string"
        },
        {
          "internalType": "string[][]",
          "name": "_skills",
          "type": "string[][]"
        },
        {
          "internalType": "string[]",
          "name": "certificateUrls",
          "type": "string[]"
        },
        {
          "internalType": "string[][]",
          "name": "instructorsNames",
          "type": "string[][]"
        },
        {
          "internalType": "address",
          "name": "takerAddress",
          "type": "address"
        },
        {
          "internalType": "address",
          "name": "giverAddress",
          "type": "address"
        },
        {
          "internalType": "enum certification_system.user_status",
          "name": "status",
          "type": "uint8"
        }
      ],
      "stateMutability": "view",
      "type": "function"
    },
    {
      "inputs": [
        {
          "internalType": "address",
          "name": "_address",
          "type": "address"
        }
      ],
      "name": "get_user_register_data",
      "outputs": [
        {
          "internalType": "address",
          "name": "_user_address",
          "type": "address"
        },
        {
          "internalType": "string",
          "name": "_name",
          "type": "string"
        },
        {
          "internalType": "uint256",
          "name": "_id",
          "type": "uint256"
        }
      ],
      "stateMutability": "view",
      "type": "function"
    },
    {
      "inputs": [
        {
          "internalType": "string",
          "name": "_course_name",
          "type": "string"
        },
        {
          "internalType": "string",
          "name": "_course_length",
          "type": "string"
        },
        {
          "internalType": "string",
          "name": "_certificate_url",
          "type": "string"
        },
        {
          "internalType": "string[]",
          "name": "_instructors_names",
          "type": "string[]"
        },
        {
          "internalType": "address",
          "name": "_taker_address",
          "type": "address"
        }
      ],
      "name": "give_certificate_to_user",
      "outputs": [],
      "stateMutability": "nonpayable",
      "type": "function"
    },
    {
      "inputs": [
        {
          "internalType": "address",
          "name": "_address",
          "type": "address"
        },
        {
          "internalType": "string",
          "name": "_message",
          "type": "string"
        }
      ],
      "name": "invite_others",
      "outputs": [],
      "stateMutability": "nonpayable",
      "type": "function"
    },
    {
      "inputs": [
        {
          "internalType": "address",
          "name": "_address",
          "type": "address"
        },
        {
          "internalType": "string",
          "name": "_course_name",
          "type": "string"
        }
      ],
      "name": "is_user_certified",
      "outputs": [
        {
          "internalType": "enum certification_system.user_status",
          "name": "",
          "type": "uint8"
        }
      ],
      "stateMutability": "view",
      "type": "function"
    },
    {
      "inputs": [],
      "name": "owner",
      "outputs": [
        {
          "internalType": "address",
          "name": "",
          "type": "address"
        }
      ],
      "stateMutability": "view",
      "type": "function"
    },
    {
      "inputs": [
        {
          "internalType": "string",
          "name": "_name",
          "type": "string"
        }
      ],
      "name": "register_yourself",
      "outputs": [],
      "stateMutability": "nonpayable",
      "type": "function"
    },
    {
      "inputs": [],
      "name": "renounceOwnership",
      "outputs": [],
      "stateMutability": "nonpayable",
      "type": "function"
    },
    {
      "inputs": [
        {
          "internalType": "address",
          "name": "_to",
          "type": "address"
        },
        {
          "internalType": "string",
          "name": "_course_name",
          "type": "string"
        }
      ],
      "name": "send_certificate",
      "outputs": [],
      "stateMutability": "nonpayable",
      "type": "function"
    },
    {
      "inputs": [
        {
          "internalType": "address",
          "name": "newOwner",
          "type": "address"
        }
      ],
      "name": "transferOwnership",
      "outputs": [],
      "stateMutability": "nonpayable",
      "type": "function"
    }
  ],
  "bytecode": "0x60806040523480156200001157600080fd5b506200001d3362000023565b62000073565b600080546001600160a01b038381166001600160a01b0319831681178455604051919092169283917f8be0079c531659141344cd1fd0a4f28419497f9722a3daafe3b4186f6b6457e09190a35050565b6134fd80620000836000396000f3fe608060405234801561001057600080fd5b50600436106100f55760003560e01c8063a232faf911610097578063d843225511610066578063d843225514610209578063eb36d4ca1461021c578063f2fde38b1461023e578063fbd465b21461025157600080fd5b8063a232faf9146101b9578063a8d38215146101cc578063ac1e9135146101e3578063b7ee804b146101f657600080fd5b806365d37ec8116100d357806365d37ec81461014b5780636ec247a514610176578063715018a6146101965780638da5cb5b1461019e57600080fd5b806313e7e419146100fa5780632ad5c25c14610123578063482f9cab14610138575b600080fd5b61010d610108366004612b8d565b610264565b60405161011a9190612c7d565b60405180910390f35b610136610131366004612d35565b6104b1565b005b610136610146366004612db4565b6109d6565b61015e610159366004612df7565b610d70565b60405161011a9c9b9a99989796959493929190612f1d565b610189610184366004612db4565b611684565b60405161011a919061300b565b6101366116c9565b6000546040516001600160a01b03909116815260200161011a565b6101366101c7366004613019565b6116dd565b6101d4611d4c565b60405161011a939291906130d6565b61010d6101f1366004612b8d565b612096565b610136610204366004612b8d565b6122a6565b610136610217366004612db4565b6123c2565b61022f61022a366004612df7565b61257d565b60405161011a9392919061314b565b61013661024c366004612df7565b612656565b61013661025f366004612b8d565b6126cf565b6060806000805b600254811015610349576103246002828154811061028b5761028b61317f565b9060005260206000200180546102a090613195565b80601f01602080910402602001604051908101604052809291908181526020018280546102cc90613195565b80156103195780601f106102ee57610100808354040283529160200191610319565b820191906000526020600020905b8154815290600101906020018083116102fc57829003601f168201915b5050505050866127f4565b156103375781610333816131e5565b9250505b80610341816131e5565b91505061026b565b50806001600160401b0381111561036257610362612ad8565b60405190808252806020026020018201604052801561039557816020015b60608152602001906001900390816103805790505b5091506000905060005b6002548110156104a8576103bf6002828154811061028b5761028b61317f565b1561049657600281815481106103d7576103d761317f565b9060005260206000200180546103ec90613195565b80601f016020809104026020016040519081016040528092919081815260200182805461041890613195565b80156104655780601f1061043a57610100808354040283529160200191610465565b820191906000526020600020905b81548152906001019060200180831161044857829003601f168201915b505050505083838151811061047c5761047c61317f565b60200260200101819052508180610492906131e5565b9250505b806104a0816131e5565b91505061039f565b50909392505050565b336000818152600560205260409020600201546001600160a01b0316146105165760405162461bcd60e51b81526020600482015260146024820152732cb7ba9030b932903737ba10383937bb34b232b960611b60448201526064015b60405180910390fd5b6040805160a081018252838152336000908152600560209081529281206001018054919383019161054690613195565b80601f016020809104026020016040519081016040528092919081815260200182805461057290613195565b80156105bf5780601f10610594576101008083540402835291602001916105bf565b820191906000526020600020905b8154815290600101906020018083116105a257829003601f168201915b505050918352505033600090815260056020908152604090912080549190920191906105ea90613195565b80601f016020809104026020016040519081016040528092919081815260200182805461061690613195565b80156106635780601f1061063857610100808354040283529160200191610663565b820191906000526020600020905b81548152906001019060200180831161064657829003601f168201915b5050509183525050336000818152600560208181526040808420600201546001600160a01b03168287015294850188905292825260048352928120805460018101825590825291902083519394508493919092029091019081906106c7908261324d565b50602082015160018201906106dc908261324d565b50604082015160028201906106f1908261324d565b5060608201516003820180546001600160a01b0319166001600160a01b0390921691909117905560808201518051610733916004840191602090910190612a23565b5050600280546001810182556000919091527f405787fa12a823e0f2b7631cc41b3ba8828b3321ca811111fa75cd3aa3bb5ace019050610773848261324d565b50336000908152600560205260408120600301805491610792836131e5565b9091555050336000908152600a60205260409081902090518491906107b890839061330c565b908152604051908190036020019020906107d2908261324d565b50336000908152600a60205260409081902090518391906107f490869061330c565b90815260200160405180910390206004019080519060200190610818929190612a23565b506001548251600061082a8284613328565b6001600160401b0381111561084157610841612ad8565b60405190808252806020026020018201604052801561087457816020015b606081526020019060019003908161085f5790505b50905060005b8381101561095857600181815481106108955761089561317f565b9060005260206000200180546108aa90613195565b80601f01602080910402602001604051908101604052809291908181526020018280546108d690613195565b80156109235780601f106108f857610100808354040283529160200191610923565b820191906000526020600020905b81548152906001019060200180831161090657829003601f168201915b505050505082828151811061093a5761093a61317f565b60200260200101819052508080610950906131e5565b91505061087a565b5060005b828110156109b9578581815181106109765761097661317f565b602002602001015182828661098b9190613328565b8151811061099b5761099b61317f565b602002602001018190525080806109b1906131e5565b91505061095c565b5080516109cd906001906020840190612a23565b50505050505050565b336000818152600660205260409020546001600160a01b031614610a0c5760405162461bcd60e51b815260040161050d90613340565b6001600160a01b0380831660008181526006602052604090205490911614610a765760405162461bcd60e51b815260206004820152601a60248201527f7265636569766572206973206e6f742072656769737465726564000000000000604482015260640161050d565b600133600090815260096020526040908190209051610a9690849061330c565b9081526040519081900360200190206002015460ff166001811115610abd57610abd612ee5565b14610b185760405162461bcd60e51b815260206004820152602560248201527f596f7520617265206e6f742063657274696669656420696e207468697320636f6044820152643ab939b29760d91b606482015260840161050d565b6040805160608101825233808252602080830185905260009182526009905282812083519193830191610b4c90869061330c565b90815260200160405180910390206001018054610b6890613195565b80601f0160208091040260200160405190810160405280929190818152602001828054610b9490613195565b8015610be15780601f10610bb657610100808354040283529160200191610be1565b820191906000526020600020905b815481529060010190602001808311610bc457829003601f168201915b5050509190925250506001600160a01b038481166000908152600b60209081526040822080546001808201835591845292829020855160039094020180546001600160a01b03191693909416929092178355830151929350839290820190610c49908261324d565b5060408201516002820190610c5e908261324d565b505033600090815260096020526040808220905191925090610c8190859061330c565b90815260200160405180910390206001018054610c9d90613195565b80601f0160208091040260200160405190810160405280929190818152602001828054610cc990613195565b8015610d165780601f10610ceb57610100808354040283529160200191610d16565b820191906000526020600020905b815481529060010190602001808311610cf957829003601f168201915b50505050509050336001600160a01b0316846001600160a01b03167f85d62ad17175a6e0841001b0885d37b0fecee35b1d67ca97e146808dcf3a7d398584604051610d62929190613370565b60405180910390a350505050565b6001600160a01b03811660009081526007602090815260408083206008909252822080546060939284928392839283928392839283928a92839283929091610db790613195565b80601f0160208091040260200160405190810160405280929190818152602001828054610de390613195565b8015610e305780601f10610e0557610100808354040283529160200191610e30565b820191906000526020600020905b815481529060010190602001808311610e1357829003601f168201915b50505050509c50600860008f6001600160a01b03166001600160a01b03168152602001908152602001600020600301549b5080805490506001600160401b03811115610e7e57610e7e612ad8565b604051908082528060200260200182016040528015610ea7578160200160208202803683370190505b508154909b506001600160401b03811115610ec457610ec4612ad8565b604051908082528060200260200182016040528015610ef757816020015b6060815260200190600190039081610ee25790505b508154909a506001600160401b03811115610f1457610f14612ad8565b604051908082528060200260200182016040528015610f4757816020015b6060815260200190600190039081610f325790505b506001600160a01b038f1660009081526008602052604090206002018054919a5090610f7290613195565b80601f0160208091040260200160405190810160405280929190818152602001828054610f9e90613195565b8015610feb5780601f10610fc057610100808354040283529160200191610feb565b820191906000526020600020905b815481529060010190602001808311610fce57829003601f168201915b50508454939b5050506001600160401b03821115905061100d5761100d612ad8565b60405190808252806020026020018201604052801561104057816020015b606081526020019060019003908161102b5790505b5081549097506001600160401b0381111561105d5761105d612ad8565b60405190808252806020026020018201604052801561109057816020015b606081526020019060019003908161107b5790505b5081549096506001600160401b038111156110ad576110ad612ad8565b6040519080825280602002602001820160405280156110e057816020015b60608152602001906001900390816110cb5790505b509450600860008f6001600160a01b03166001600160a01b0316815260200190815260200160002060040160009054906101000a90046001600160a01b03169350600860008f6001600160a01b03166001600160a01b0316815260200190815260200160002060050160009054906101000a90046001600160a01b03169250600860008f6001600160a01b03166001600160a01b0316815260200190815260200160002060050160149054906101000a900460ff16915060005b8154811015611673578181815481106111b5576111b561317f565b9060005260206000209060060201600001548c82815181106111d9576111d961317f565b6020026020010181815250508181815481106111f7576111f761317f565b9060005260206000209060060201600101805461121390613195565b80601f016020809104026020016040519081016040528092919081815260200182805461123f90613195565b801561128c5780601f106112615761010080835404028352916020019161128c565b820191906000526020600020905b81548152906001019060200180831161126f57829003601f168201915b50505050508b82815181106112a3576112a361317f565b60200260200101819052508181815481106112c0576112c061317f565b9060005260206000209060060201600301805480602002602001604051908101604052809291908181526020016000905b8282101561139d57838290600052602060002001805461131090613195565b80601f016020809104026020016040519081016040528092919081815260200182805461133c90613195565b80156113895780601f1061135e57610100808354040283529160200191611389565b820191906000526020600020905b81548152906001019060200180831161136c57829003601f168201915b5050505050815260200190600101906112f1565b505050508882815181106113b3576113b361317f565b60200260200101819052508181815481106113d0576113d061317f565b906000526020600020906006020160020180546113ec90613195565b80601f016020809104026020016040519081016040528092919081815260200182805461141890613195565b80156114655780601f1061143a57610100808354040283529160200191611465565b820191906000526020600020905b81548152906001019060200180831161144857829003601f168201915b50505050508a828151811061147c5761147c61317f565b60200260200101819052508181815481106114995761149961317f565b906000526020600020906006020160040180546114b590613195565b80601f01602080910402602001604051908101604052809291908181526020018280546114e190613195565b801561152e5780601f106115035761010080835404028352916020019161152e565b820191906000526020600020905b81548152906001019060200180831161151157829003601f168201915b50505050508782815181106115455761154561317f565b60200260200101819052508181815481106115625761156261317f565b9060005260206000209060060201600501805480602002602001604051908101604052809291908181526020016000905b8282101561163f5783829060005260206000200180546115b290613195565b80601f01602080910402602001604051908101604052809291908181526020018280546115de90613195565b801561162b5780601f106116005761010080835404028352916020019161162b565b820191906000526020600020905b81548152906001019060200180831161160e57829003601f168201915b505050505081526020019060010190611593565b505050508682815181106116555761165561317f565b6020026020010181905250808061166b906131e5565b91505061119a565b505091939597999b5091939597999b565b6001600160a01b03821660009081526009602052604080822090516116aa90849061330c565b9081526040519081900360200190206002015460ff1690505b92915050565b6116d16128e3565b6116db600061293d565b565b336000818152600560205260409020600201546001600160a01b03161461173d5760405162461bcd60e51b81526020600482015260146024820152732cb7ba9030b932903737ba10383937bb34b232b960611b604482015260640161050d565b806001600160a01b03166117596000546001600160a01b031690565b6001600160a01b0316036117af5760405162461bcd60e51b815260206004820152601d60248201527f6f776e65722063616e277420676976652063657274696669636174652e000000604482015260640161050d565b6001600160a01b03808216600081815260066020526040902054909116146118195760405162461bcd60e51b815260206004820152601860248201527f54616b6572206973206e6f7420726567697374657265642e0000000000000000604482015260640161050d565b336000908152600a60205260409081902090516118da919061183c90889061330c565b908152604051908190036020019020805461185690613195565b80601f016020809104026020016040519081016040528092919081815260200182805461188290613195565b80156118cf5780601f106118a4576101008083540402835291602001916118cf565b820191906000526020600020905b8154815290600101906020018083116118b257829003601f168201915b50505050508661298d565b6119195760405162461bcd60e51b815260206004820152601060248201526f10dbdd5c9cd9481b9bdd08199bdd5b9960821b604482015260640161050d565b60006040518060c00160405280428152602001878152602001868152602001600a6000336001600160a01b03166001600160a01b031681526020019081526020016000208860405161196b919061330c565b9081526020016040518091039020600401805480602002602001604051908101604052809291908181526020016000905b82821015611a485783829060005260206000200180546119bb90613195565b80601f01602080910402602001604051908101604052809291908181526020018280546119e790613195565b8015611a345780601f10611a0957610100808354040283529160200191611a34565b820191906000526020600020905b815481529060010190602001808311611a1757829003601f168201915b50505050508152602001906001019061199c565b50505090825250602080820187905260409182018690526001600160a01b03851660009081526007825291822080546001818101835591845292829020845160069094020192835590830151929350839290820190611aa7908261324d565b5060408201516002820190611abc908261324d565b5060608201518051611ad8916003840191602090910190612a23565b5060808201516004820190611aed908261324d565b5060a08201518051611b09916005840191602090910190612a23565b5050506001600160a01b0382166000908152600660209081526040808320600890925290912090611b3d906001018261339e565b503360009081526005602090815260408083206001600160a01b0386168452600890925290912060010190611b72908261339e565b503360009081526005602090815260408083206001600160a01b0386168452600890925290912060020190611baa906001018261339e565b506001600160a01b038216600081815260066020908152604080832060020154600883528184206003810191909155600581018054600490920180546001600160a01b0319169096179095556001600160a81b0319163360ff60a01b191617600160a01b17909355600990528190209051879190611c2990839061330c565b90815260405190819003602001902090611c43908261324d565b506001600160a01b038216600090815260096020526040908190209051859190611c6e90899061330c565b90815260200160405180910390206001019081611c8b919061324d565b506001600160a01b03821660009081526009602052604090819020905160019190611cb790899061330c565b908152604051908190036020019020600201805460ff191660018381811115611ce257611ce2612ee5565b021790555033600090815260056020526040908190206002015490516001600160a01b03918216918416907f3bba53945d04b7fb148d571bad2069f7f69e5ef5802e63e4aa149323cafd13a290611d3c908a908990613370565b60405180910390a3505050505050565b336000908152600b602052604090205460609081908190806001600160401b03811115611d7b57611d7b612ad8565b604051908082528060200260200182016040528015611da4578160200160208202803683370190505b509350806001600160401b03811115611dbf57611dbf612ad8565b604051908082528060200260200182016040528015611df257816020015b6060815260200190600190039081611ddd5790505b509250806001600160401b03811115611e0d57611e0d612ad8565b604051908082528060200260200182016040528015611e4057816020015b6060815260200190600190039081611e2b5790505b50915060005b8181101561208f57336000908152600b60205260409020805482908110611e6f57611e6f61317f565b600091825260209091206003909102015485516001600160a01b0390911690869083908110611ea057611ea061317f565b6001600160a01b03909216602092830291909101820152336000908152600b90915260409020805482908110611ed857611ed861317f565b90600052602060002090600302016001018054611ef490613195565b80601f0160208091040260200160405190810160405280929190818152602001828054611f2090613195565b8015611f6d5780601f10611f4257610100808354040283529160200191611f6d565b820191906000526020600020905b815481529060010190602001808311611f5057829003601f168201915b5050505050848281518110611f8457611f8461317f565b6020026020010181905250600b6000336001600160a01b03166001600160a01b031681526020019081526020016000208181548110611fc557611fc561317f565b90600052602060002090600302016002018054611fe190613195565b80601f016020809104026020016040519081016040528092919081815260200182805461200d90613195565b801561205a5780601f1061202f5761010080835404028352916020019161205a565b820191906000526020600020905b81548152906001019060200180831161203d57829003601f168201915b50505050508382815181106120715761207161317f565b60200260200101819052508080612087906131e5565b915050611e46565b5050909192565b60606000806001805490506001600160401b038111156120b8576120b8612ad8565b6040519080825280602002602001820160405280156120eb57816020015b60608152602001906001900390816120d65790505b50905060005b6001548110156121fa576121116001828154811061028b5761028b61317f565b156121e857600181815481106121295761212961317f565b90600052602060002001805461213e90613195565b80601f016020809104026020016040519081016040528092919081815260200182805461216a90613195565b80156121b75780601f1061218c576101008083540402835291602001916121b7565b820191906000526020600020905b81548152906001019060200180831161219a57829003601f168201915b50505050508284815181106121ce576121ce61317f565b602002602001018190525082806121e4906131e5565b9350505b806121f2816131e5565b9150506120f1565b50816001600160401b0381111561221357612213612ad8565b60405190808252806020026020018201604052801561224657816020015b60608152602001906001900390816122315790505b50925060005b8281101561229e578181815181106122665761226661317f565b60200260200101518482815181106122805761228061317f565b60200260200101819052508080612296906131e5565b91505061224c565b505050919050565b6000546001600160a01b031633036123005760405162461bcd60e51b815260206004820152601760248201527f4f776e65722063616e277420646f20616e797468696e67000000000000000000604482015260640161050d565b336000818152600660205260409020546001600160a01b0316036123665760405162461bcd60e51b815260206004820152601b60248201527f596f75206861766520616c726561647920726567697374657265640000000000604482015260640161050d565b60038054906000612376836131e5565b909155505033600081815260066020526040902080546001600160a01b03191690911781556001016123a8828261324d565b505060035433600090815260066020526040902060020155565b336000818152600660205260409020546001600160a01b0316146123f85760405162461bcd60e51b815260040161050d90613340565b336001600160a01b038316036124505760405162461bcd60e51b815260206004820152601a60248201527f596f752063616e277420696e7669746520796f757273656c662e000000000000604482015260640161050d565b6000546001600160a01b03166001600160a01b0316826001600160a01b0316036124bc5760405162461bcd60e51b815260206004820152601760248201527f596f752063616e277420696e76697465206f776e65722e000000000000000000604482015260640161050d565b6001600160a01b03808316600081815260066020526040902054909116036125315760405162461bcd60e51b815260206004820152602260248201527f5468697320697320616c72656164792061207265676973746572656420757365604482015261391760f11b606482015260840161050d565b60405182906001600160a01b0382169033907f994573f14ad3b387b36188da08f32725c8840f8039c7e287413f66c333a63c5b90612570908690613478565b60405180910390a3505050565b6001600160a01b0380821660009081526006602052604081208054600190910180549190931692606092916125b190613195565b80601f01602080910402602001604051908101604052809291908181526020018280546125dd90613195565b801561262a5780601f106125ff5761010080835404028352916020019161262a565b820191906000526020600020905b81548152906001019060200180831161260d57829003601f168201915b505050506001600160a01b03959095166000908152600660205260409020600201549395909450915050565b61265e6128e3565b6001600160a01b0381166126c35760405162461bcd60e51b815260206004820152602660248201527f4f776e61626c653a206e6577206f776e657220697320746865207a65726f206160448201526564647265737360d01b606482015260840161050d565b6126cc8161293d565b50565b336000818152600660205260409020546001600160a01b0316146127055760405162461bcd60e51b815260040161050d90613340565b336000818152600560205260409020600201546001600160a01b0316900361276f5760405162461bcd60e51b815260206004820152601860248201527f596f752061726520616c72656164792070726f76696465720000000000000000604482015260640161050d565b336000908152600660209081526040808320600590925290912090612797906001018261339e565b503360009081526005602052604090206001016127b4828261324d565b505033600090815260066020908152604080832054600590925290912060020180546001600160a01b0319166001600160a01b0392909216919091179055565b80518251600091849184911115612810576000925050506116c3565b60005b81518351612821919061348b565b81116128d757600160005b83518110156128b05761285e84828151811061284a5761284a61317f565b01602001516001600160f81b0319166129e6565b6001600160f81b031916612886866128768487613328565b8151811061284a5761284a61317f565b6001600160f81b0319161461289e57600091506128b0565b806128a8816131e5565b91505061282c565b5080156128c45760019450505050506116c3565b50806128cf816131e5565b915050612813565b50600095945050505050565b6000546001600160a01b031633146116db5760405162461bcd60e51b815260206004820181905260248201527f4f776e61626c653a2063616c6c6572206973206e6f7420746865206f776e6572604482015260640161050d565b600080546001600160a01b038381166001600160a01b0319831681178455604051919092169283917f8be0079c531659141344cd1fd0a4f28419497f9722a3daafe3b4186f6b6457e09190a35050565b6000816040516020016129a0919061330c565b60405160208183030381529060405280519060200120836040516020016129c7919061330c565b6040516020818303038152906040528051906020012014905092915050565b6000604160f883901c10801590612a025750605a60f883901c11155b15612a1f57612a1660f883901c60206134a2565b60f81b92915050565b5090565b828054828255906000526020600020908101928215612a69579160200282015b82811115612a695782518290612a59908261324d565b5091602001919060010190612a43565b50612a1f9291505b80821115612a1f576000612a858282612a8e565b50600101612a71565b508054612a9a90613195565b6000825580601f10612aaa575050565b601f0160209004906000526020600020908101906126cc91905b80821115612a1f5760008155600101612ac4565b634e487b7160e01b600052604160045260246000fd5b604051601f8201601f191681016001600160401b0381118282101715612b1657612b16612ad8565b604052919050565b600082601f830112612b2f57600080fd5b81356001600160401b03811115612b4857612b48612ad8565b612b5b601f8201601f1916602001612aee565b818152846020838601011115612b7057600080fd5b816020850160208301376000918101602001919091529392505050565b600060208284031215612b9f57600080fd5b81356001600160401b03811115612bb557600080fd5b612bc184828501612b1e565b949350505050565b60005b83811015612be4578181015183820152602001612bcc565b83811115612bf3576000848401525b50505050565b60008151808452612c11816020860160208601612bc9565b601f01601f19169290920160200192915050565b600082825180855260208086019550808260051b84010181860160005b84811015612c7057601f19868403018952612c5e838351612bf9565b98840198925090830190600101612c42565b5090979650505050505050565b602081526000612c906020830184612c25565b9392505050565b600082601f830112612ca857600080fd5b813560206001600160401b0380831115612cc457612cc4612ad8565b8260051b612cd3838201612aee565b9384528581018301938381019088861115612ced57600080fd5b84880192505b85831015612d2957823584811115612d0b5760008081fd5b612d198a87838c0101612b1e565b8352509184019190840190612cf3565b98975050505050505050565b60008060408385031215612d4857600080fd5b82356001600160401b0380821115612d5f57600080fd5b612d6b86838701612b1e565b93506020850135915080821115612d8157600080fd5b50612d8e85828601612c97565b9150509250929050565b80356001600160a01b0381168114612daf57600080fd5b919050565b60008060408385031215612dc757600080fd5b612dd083612d98565b915060208301356001600160401b03811115612deb57600080fd5b612d8e85828601612b1e565b600060208284031215612e0957600080fd5b612c9082612d98565b600081518084526020808501945080840160005b83811015612e4257815187529582019590820190600101612e26565b509495945050505050565b600081518084526020808501808196506005915083821b81018387016000805b87811015612ed6578484038b5282518051808652908801908886019080891b87018a01855b82811015612ec057601f19898303018452612eae828651612bf9565b948c0194938c01939150600101612e92565b509d8a019d965050509287019250600101612e6d565b50919998505050505050505050565b634e487b7160e01b600052602160045260246000fd5b60028110612f1957634e487b7160e01b600052602160045260246000fd5b9052565b61018081526000612f3261018083018f612bf9565b8d60208401528281036040840152612f4a818e612e12565b90508281036060840152612f5e818d612c25565b90508281036080840152612f72818c612c25565b905082810360a0840152612f86818b612bf9565b905082810360c0840152612f9a818a612e4d565b905082810360e0840152612fae8189612c25565b9050828103610100840152612fc38188612e4d565b915050612fdc6101208301866001600160a01b03169052565b6001600160a01b038416610140830152612ffa610160830184612efb565b9d9c50505050505050505050505050565b602081016116c38284612efb565b600080600080600060a0868803121561303157600080fd5b85356001600160401b038082111561304857600080fd5b61305489838a01612b1e565b9650602088013591508082111561306a57600080fd5b61307689838a01612b1e565b9550604088013591508082111561308c57600080fd5b61309889838a01612b1e565b945060608801359150808211156130ae57600080fd5b506130bb88828901612c97565b9250506130ca60808701612d98565b90509295509295909350565b606080825284519082018190526000906020906080840190828801845b828110156131185781516001600160a01b0316845292840192908401906001016130f3565b5050508381038285015261312c8187612c25565b91505082810360408401526131418185612c25565b9695505050505050565b6001600160a01b038416815260606020820181905260009061316f90830185612bf9565b9050826040830152949350505050565b634e487b7160e01b600052603260045260246000fd5b600181811c908216806131a957607f821691505b6020821081036131c957634e487b7160e01b600052602260045260246000fd5b50919050565b634e487b7160e01b600052601160045260246000fd5b6000600182016131f7576131f76131cf565b5060010190565b601f82111561324857600081815260208120601f850160051c810160208610156132255750805b601f850160051c820191505b8181101561324457828155600101613231565b5050505b505050565b81516001600160401b0381111561326657613266612ad8565b61327a816132748454613195565b846131fe565b602080601f8311600181146132af57600084156132975750858301515b600019600386901b1c1916600185901b178555613244565b600085815260208120601f198616915b828110156132de578886015182559484019460019091019084016132bf565b50858210156132fc5787850151600019600388901b60f8161c191681555b5050505050600190811b01905550565b6000825161331e818460208701612bc9565b9190910192915050565b6000821982111561333b5761333b6131cf565b500190565b602080825260169082015275165bdd48185c99481b9bdd081c9959da5cdd195c995960521b604082015260600190565b6040815260006133836040830185612bf9565b82810360208401526133958185612bf9565b95945050505050565b8181036133a9575050565b6133b38254613195565b6001600160401b038111156133ca576133ca612ad8565b6133d8816132748454613195565b6000601f82116001811461340c57600083156133f45750848201545b600019600385901b1c1916600184901b178455613471565b600085815260209020601f19841690600086815260209020845b838110156134465782860154825560019586019590910190602001613426565b50858310156134645781850154600019600388901b60f8161c191681555b50505060018360011b0184555b5050505050565b602081526000612c906020830184612bf9565b60008282101561349d5761349d6131cf565b500390565b600060ff821660ff84168060ff038211156134bf576134bf6131cf565b01939250505056fea264697066735822122014c37939c664565df41339856a070f9ee0c65270bfffed125dd8fde8d4f27db664736f6c634300080f0033",
  "linkReferences": {},
  "deployedLinkReferences": {}
}