{
  "_format": "hh-sol-artifact-1",
  "contractName": "certification_system",
  "sourceName": "contracts/certification_system.sol",
  "abi": [
    {
      "anonymous": false,
      "inputs": [
        {
          "indexed": true,
          "internalType": "address",
          "name": "takerAddress",
          "type": "address"
        },
        {
          "indexed": true,
          "internalType": "address",
          "name": "giverAddress",
          "type": "address"
        },
        {
          "indexed": false,
          "internalType": "string",
          "name": "courseName",
          "type": "string"
        },
        {
          "indexed": false,
          "internalType": "string",
          "name": "certificateUrl",
          "type": "string"
        }
      ],
      "name": "CertificateIssued",
      "type": "event"
    },
    {
      "anonymous": false,
      "inputs": [
        {
          "indexed": true,
          "internalType": "address",
          "name": "takerAddress",
          "type": "address"
        },
        {
          "indexed": true,
          "internalType": "address",
          "name": "giverAddress",
          "type": "address"
        },
        {
          "indexed": false,
          "internalType": "string",
          "name": "courseName",
          "type": "string"
        },
        {
          "indexed": false,
          "internalType": "string",
          "name": "certificateUrl",
          "type": "string"
        }
      ],
      "name": "CertificateSend",
      "type": "event"
    },
    {
      "anonymous": false,
      "inputs": [
        {
          "indexed": true,
          "internalType": "address",
          "name": "inviter",
          "type": "address"
        },
        {
          "indexed": true,
          "internalType": "address",
          "name": "invitee",
          "type": "address"
        },
        {
          "indexed": false,
          "internalType": "string",
          "name": "message",
          "type": "string"
        }
      ],
      "name": "InvitationSent",
      "type": "event"
    },
    {
      "anonymous": false,
      "inputs": [
        {
          "indexed": true,
          "internalType": "address",
          "name": "previousOwner",
          "type": "address"
        },
        {
          "indexed": true,
          "internalType": "address",
          "name": "newOwner",
          "type": "address"
        }
      ],
      "name": "OwnershipTransferred",
      "type": "event"
    },
    {
      "inputs": [
        {
          "internalType": "string",
          "name": "_institute_name",
          "type": "string"
        }
      ],
      "name": "become_provider",
      "outputs": [],
      "stateMutability": "nonpayable",
      "type": "function"
    },
    {
      "inputs": [
        {
          "internalType": "string",
          "name": "keyword",
          "type": "string"
        }
      ],
      "name": "find_certificates",
      "outputs": [
        {
          "internalType": "string[]",
          "name": "Certificates",
          "type": "string[]"
        }
      ],
      "stateMutability": "view",
      "type": "function"
    },
    {
      "inputs": [
        {
          "internalType": "string",
          "name": "keyword",
          "type": "string"
        }
      ],
      "name": "find_skills",
      "outputs": [
        {
          "internalType": "string[]",
          "name": "Skills",
          "type": "string[]"
        }
      ],
      "stateMutability": "view",
      "type": "function"
    },
    {
      "inputs": [],
      "name": "get_received_Certificates",
      "outputs": [
        {
          "internalType": "address[]",
          "name": "_sended_addresses",
          "type": "address[]"
        },
        {
          "internalType": "string[]",
          "name": "_course_names",
          "type": "string[]"
        },
        {
          "internalType": "string[]",
          "name": "_certificate_urls",
          "type": "string[]"
        }
      ],
      "stateMutability": "view",
      "type": "function"
    },
    {
      "inputs": [
        {
          "internalType": "address",
          "name": "_user_address",
          "type": "address"
        }
      ],
      "name": "get_user_certificates",
      "outputs": [
        {
          "internalType": "string",
          "name": "candidiateName",
          "type": "string"
        },
        {
          "internalType": "uint256",
          "name": "user_id",
          "type": "uint256"
        },
        {
          "internalType": "uint256[]",
          "name": "issueDates",
          "type": "uint256[]"
        },
        {
          "internalType": "string[]",
          "name": "courseNames",
          "type": "string[]"
        },
        {
          "internalType": "string[]",
          "name": "courseLengths",
          "type": "string[]"
        },
        {
          "internalType": "string",
          "name": "instituteName",
          "type": "string"
        },
        {
          "internalType": "string[][]",
          "name": "_skills",
          "type": "string[][]"
        },
        {
          "internalType": "string[]",
          "name": "certificateUrls",
          "type": "string[]"
        },
        {
          "internalType": "string[][]",
          "name": "instructorsNames",
          "type": "string[][]"
        },
        {
          "internalType": "address",
          "name": "takerAddress",
          "type": "address"
        },
        {
          "internalType": "address",
          "name": "giverAddress",
          "type": "address"
        },
        {
          "internalType": "enum certification_system.user_status",
          "name": "status",
          "type": "uint8"
        }
      ],
      "stateMutability": "view",
      "type": "function"
    },
    {
      "inputs": [
        {
          "internalType": "address",
          "name": "_address",
          "type": "address"
        }
      ],
      "name": "get_user_register_data",
      "outputs": [
        {
          "internalType": "address",
          "name": "_user_address",
          "type": "address"
        },
        {
          "internalType": "string",
          "name": "_name",
          "type": "string"
        },
        {
          "internalType": "uint256",
          "name": "_id",
          "type": "uint256"
        }
      ],
      "stateMutability": "view",
      "type": "function"
    },
    {
      "inputs": [
        {
          "internalType": "string",
          "name": "_course_name",
          "type": "string"
        },
        {
          "internalType": "string[]",
          "name": "_skills",
          "type": "string[]"
        },
        {
          "internalType": "string",
          "name": "_course_length",
          "type": "string"
        },
        {
          "internalType": "string",
          "name": "_certificate_url",
          "type": "string"
        },
        {
          "internalType": "string[]",
          "name": "_instructors_names",
          "type": "string[]"
        },
        {
          "internalType": "address",
          "name": "_taker_address",
          "type": "address"
        }
      ],
      "name": "give_certificate_to_user",
      "outputs": [],
      "stateMutability": "nonpayable",
      "type": "function"
    },
    {
      "inputs": [
        {
          "internalType": "address",
          "name": "_address",
          "type": "address"
        },
        {
          "internalType": "string",
          "name": "_message",
          "type": "string"
        }
      ],
      "name": "invite_others",
      "outputs": [],
      "stateMutability": "nonpayable",
      "type": "function"
    },
    {
      "inputs": [
        {
          "internalType": "address",
          "name": "_address",
          "type": "address"
        },
        {
          "internalType": "string",
          "name": "_course_name",
          "type": "string"
        }
      ],
      "name": "is_user_certified",
      "outputs": [
        {
          "internalType": "enum certification_system.user_status",
          "name": "",
          "type": "uint8"
        }
      ],
      "stateMutability": "view",
      "type": "function"
    },
    {
      "inputs": [],
      "name": "owner",
      "outputs": [
        {
          "internalType": "address",
          "name": "",
          "type": "address"
        }
      ],
      "stateMutability": "view",
      "type": "function"
    },
    {
      "inputs": [
        {
          "internalType": "string",
          "name": "_name",
          "type": "string"
        }
      ],
      "name": "register_yourself",
      "outputs": [],
      "stateMutability": "nonpayable",
      "type": "function"
    },
    {
      "inputs": [],
      "name": "renounceOwnership",
      "outputs": [],
      "stateMutability": "nonpayable",
      "type": "function"
    },
    {
      "inputs": [
        {
          "internalType": "address",
          "name": "_to",
          "type": "address"
        },
        {
          "internalType": "string",
          "name": "_course_name",
          "type": "string"
        }
      ],
      "name": "send_certificate",
      "outputs": [],
      "stateMutability": "nonpayable",
      "type": "function"
    },
    {
      "inputs": [
        {
          "internalType": "address",
          "name": "newOwner",
          "type": "address"
        }
      ],
      "name": "transferOwnership",
      "outputs": [],
      "stateMutability": "nonpayable",
      "type": "function"
    }
  ],
  "bytecode": "0x60806040523480156200001157600080fd5b506200001d3362000023565b62000073565b600080546001600160a01b038381166001600160a01b0319831681178455604051919092169283917f8be0079c531659141344cd1fd0a4f28419497f9722a3daafe3b4186f6b6457e09190a35050565b61357580620000836000396000f3fe608060405234801561001057600080fd5b50600436106100ea5760003560e01c8063ac1e91351161008c578063d843225511610066578063d8432255146101eb578063eb36d4ca146101fe578063f2fde38b14610220578063fbd465b21461023357600080fd5b8063ac1e9135146101b2578063b7ee804b146101c5578063cbbef527146101d857600080fd5b80636ec247a5116100c85780636ec247a514610158578063715018a6146101785780638da5cb5b14610180578063a8d382151461019b57600080fd5b806313e7e419146100ef578063482f9cab1461011857806365d37ec81461012d575b600080fd5b6101026100fd366004612c3e565b610246565b60405161010f9190612d2b565b60405180910390f35b61012b610126366004612d61565b610493565b005b61014061013b366004612dae565b610836565b60405161010f9c9b9a99989796959493929190612ed4565b61016b610166366004612d61565b61114a565b60405161010f9190612fc2565b61012b61118f565b6000546040516001600160a01b03909116815260200161010f565b6101a36111a3565b60405161010f93929190612fd0565b6101026101c0366004612c3e565b6114ed565b61012b6101d3366004612c3e565b6116fd565b61012b6101e63660046130e3565b611819565b61012b6101f9366004612d61565b611f53565b61021161020c366004612dae565b61210e565b60405161010f939291906131c3565b61012b61022e366004612dae565b6121e7565b61012b610241366004612c3e565b612260565b6060806000805b60025481101561032b576103066002828154811061026d5761026d6131f7565b9060005260206000200180546102829061320d565b80601f01602080910402602001604051908101604052809291908181526020018280546102ae9061320d565b80156102fb5780601f106102d0576101008083540402835291602001916102fb565b820191906000526020600020905b8154815290600101906020018083116102de57829003601f168201915b505050505086612385565b1561031957816103158161325d565b9250505b806103238161325d565b91505061024d565b50806001600160401b0381111561034457610344612b89565b60405190808252806020026020018201604052801561037757816020015b60608152602001906001900390816103625790505b5091506000905060005b60025481101561048a576103a16002828154811061026d5761026d6131f7565b1561047857600281815481106103b9576103b96131f7565b9060005260206000200180546103ce9061320d565b80601f01602080910402602001604051908101604052809291908181526020018280546103fa9061320d565b80156104475780601f1061041c57610100808354040283529160200191610447565b820191906000526020600020905b81548152906001019060200180831161042a57829003601f168201915b505050505083838151811061045e5761045e6131f7565b602002602001018190525081806104749061325d565b9250505b806104828161325d565b915050610381565b50909392505050565b336000818152600660205260409020546001600160a01b0316146104d25760405162461bcd60e51b81526004016104c990613276565b60405180910390fd5b6001600160a01b038083166000818152600660205260409020549091161461053c5760405162461bcd60e51b815260206004820152601a60248201527f7265636569766572206973206e6f74207265676973746572656400000000000060448201526064016104c9565b60013360009081526009602052604090819020905161055c9084906132a6565b9081526040519081900360200190206002015460ff16600181111561058357610583612e9c565b146105de5760405162461bcd60e51b815260206004820152602560248201527f596f7520617265206e6f742063657274696669656420696e207468697320636f6044820152643ab939b29760d91b60648201526084016104c9565b60408051606081018252338082526020808301859052600091825260099052828120835191938301916106129086906132a6565b9081526020016040518091039020600101805461062e9061320d565b80601f016020809104026020016040519081016040528092919081815260200182805461065a9061320d565b80156106a75780601f1061067c576101008083540402835291602001916106a7565b820191906000526020600020905b81548152906001019060200180831161068a57829003601f168201915b5050509190925250506001600160a01b038481166000908152600b60209081526040822080546001808201835591845292829020855160039094020180546001600160a01b0319169390941692909217835583015192935083929082019061070f9082613311565b50604082015160028201906107249082613311565b5050336000908152600960205260408082209051919250906107479085906132a6565b908152602001604051809103902060010180546107639061320d565b80601f016020809104026020016040519081016040528092919081815260200182805461078f9061320d565b80156107dc5780601f106107b1576101008083540402835291602001916107dc565b820191906000526020600020905b8154815290600101906020018083116107bf57829003601f168201915b50505050509050336001600160a01b0316846001600160a01b03167f85d62ad17175a6e0841001b0885d37b0fecee35b1d67ca97e146808dcf3a7d3985846040516108289291906133d0565b60405180910390a350505050565b6001600160a01b03811660009081526007602090815260408083206008909252822080546060939284928392839283928392839283928a9283928392909161087d9061320d565b80601f01602080910402602001604051908101604052809291908181526020018280546108a99061320d565b80156108f65780601f106108cb576101008083540402835291602001916108f6565b820191906000526020600020905b8154815290600101906020018083116108d957829003601f168201915b50505050509c50600860008f6001600160a01b03166001600160a01b03168152602001908152602001600020600301549b5080805490506001600160401b0381111561094457610944612b89565b60405190808252806020026020018201604052801561096d578160200160208202803683370190505b508154909b506001600160401b0381111561098a5761098a612b89565b6040519080825280602002602001820160405280156109bd57816020015b60608152602001906001900390816109a85790505b508154909a506001600160401b038111156109da576109da612b89565b604051908082528060200260200182016040528015610a0d57816020015b60608152602001906001900390816109f85790505b506001600160a01b038f1660009081526008602052604090206002018054919a5090610a389061320d565b80601f0160208091040260200160405190810160405280929190818152602001828054610a649061320d565b8015610ab15780601f10610a8657610100808354040283529160200191610ab1565b820191906000526020600020905b815481529060010190602001808311610a9457829003601f168201915b50508454939b5050506001600160401b038211159050610ad357610ad3612b89565b604051908082528060200260200182016040528015610b0657816020015b6060815260200190600190039081610af15790505b5081549097506001600160401b03811115610b2357610b23612b89565b604051908082528060200260200182016040528015610b5657816020015b6060815260200190600190039081610b415790505b5081549096506001600160401b03811115610b7357610b73612b89565b604051908082528060200260200182016040528015610ba657816020015b6060815260200190600190039081610b915790505b509450600860008f6001600160a01b03166001600160a01b0316815260200190815260200160002060040160009054906101000a90046001600160a01b03169350600860008f6001600160a01b03166001600160a01b0316815260200190815260200160002060050160009054906101000a90046001600160a01b03169250600860008f6001600160a01b03166001600160a01b0316815260200190815260200160002060050160149054906101000a900460ff16915060005b815481101561113957818181548110610c7b57610c7b6131f7565b9060005260206000209060060201600001548c8281518110610c9f57610c9f6131f7565b602002602001018181525050818181548110610cbd57610cbd6131f7565b90600052602060002090600602016001018054610cd99061320d565b80601f0160208091040260200160405190810160405280929190818152602001828054610d059061320d565b8015610d525780601f10610d2757610100808354040283529160200191610d52565b820191906000526020600020905b815481529060010190602001808311610d3557829003601f168201915b50505050508b8281518110610d6957610d696131f7565b6020026020010181905250818181548110610d8657610d866131f7565b9060005260206000209060060201600301805480602002602001604051908101604052809291908181526020016000905b82821015610e63578382906000526020600020018054610dd69061320d565b80601f0160208091040260200160405190810160405280929190818152602001828054610e029061320d565b8015610e4f5780601f10610e2457610100808354040283529160200191610e4f565b820191906000526020600020905b815481529060010190602001808311610e3257829003601f168201915b505050505081526020019060010190610db7565b50505050888281518110610e7957610e796131f7565b6020026020010181905250818181548110610e9657610e966131f7565b90600052602060002090600602016002018054610eb29061320d565b80601f0160208091040260200160405190810160405280929190818152602001828054610ede9061320d565b8015610f2b5780601f10610f0057610100808354040283529160200191610f2b565b820191906000526020600020905b815481529060010190602001808311610f0e57829003601f168201915b50505050508a8281518110610f4257610f426131f7565b6020026020010181905250818181548110610f5f57610f5f6131f7565b90600052602060002090600602016004018054610f7b9061320d565b80601f0160208091040260200160405190810160405280929190818152602001828054610fa79061320d565b8015610ff45780601f10610fc957610100808354040283529160200191610ff4565b820191906000526020600020905b815481529060010190602001808311610fd757829003601f168201915b505050505087828151811061100b5761100b6131f7565b6020026020010181905250818181548110611028576110286131f7565b9060005260206000209060060201600501805480602002602001604051908101604052809291908181526020016000905b828210156111055783829060005260206000200180546110789061320d565b80601f01602080910402602001604051908101604052809291908181526020018280546110a49061320d565b80156110f15780601f106110c6576101008083540402835291602001916110f1565b820191906000526020600020905b8154815290600101906020018083116110d457829003601f168201915b505050505081526020019060010190611059565b5050505086828151811061111b5761111b6131f7565b602002602001018190525080806111319061325d565b915050610c60565b505091939597999b5091939597999b565b6001600160a01b03821660009081526009602052604080822090516111709084906132a6565b9081526040519081900360200190206002015460ff1690505b92915050565b611197612474565b6111a160006124ce565b565b336000908152600b602052604090205460609081908190806001600160401b038111156111d2576111d2612b89565b6040519080825280602002602001820160405280156111fb578160200160208202803683370190505b509350806001600160401b0381111561121657611216612b89565b60405190808252806020026020018201604052801561124957816020015b60608152602001906001900390816112345790505b509250806001600160401b0381111561126457611264612b89565b60405190808252806020026020018201604052801561129757816020015b60608152602001906001900390816112825790505b50915060005b818110156114e657336000908152600b602052604090208054829081106112c6576112c66131f7565b600091825260209091206003909102015485516001600160a01b03909116908690839081106112f7576112f76131f7565b6001600160a01b03909216602092830291909101820152336000908152600b9091526040902080548290811061132f5761132f6131f7565b9060005260206000209060030201600101805461134b9061320d565b80601f01602080910402602001604051908101604052809291908181526020018280546113779061320d565b80156113c45780601f10611399576101008083540402835291602001916113c4565b820191906000526020600020905b8154815290600101906020018083116113a757829003601f168201915b50505050508482815181106113db576113db6131f7565b6020026020010181905250600b6000336001600160a01b03166001600160a01b03168152602001908152602001600020818154811061141c5761141c6131f7565b906000526020600020906003020160020180546114389061320d565b80601f01602080910402602001604051908101604052809291908181526020018280546114649061320d565b80156114b15780601f10611486576101008083540402835291602001916114b1565b820191906000526020600020905b81548152906001019060200180831161149457829003601f168201915b50505050508382815181106114c8576114c86131f7565b602002602001018190525080806114de9061325d565b91505061129d565b5050909192565b60606000806001805490506001600160401b0381111561150f5761150f612b89565b60405190808252806020026020018201604052801561154257816020015b606081526020019060019003908161152d5790505b50905060005b600154811015611651576115686001828154811061026d5761026d6131f7565b1561163f5760018181548110611580576115806131f7565b9060005260206000200180546115959061320d565b80601f01602080910402602001604051908101604052809291908181526020018280546115c19061320d565b801561160e5780601f106115e35761010080835404028352916020019161160e565b820191906000526020600020905b8154815290600101906020018083116115f157829003601f168201915b5050505050828481518110611625576116256131f7565b6020026020010181905250828061163b9061325d565b9350505b806116498161325d565b915050611548565b50816001600160401b0381111561166a5761166a612b89565b60405190808252806020026020018201604052801561169d57816020015b60608152602001906001900390816116885790505b50925060005b828110156116f5578181815181106116bd576116bd6131f7565b60200260200101518482815181106116d7576116d76131f7565b602002602001018190525080806116ed9061325d565b9150506116a3565b505050919050565b6000546001600160a01b031633036117575760405162461bcd60e51b815260206004820152601760248201527f4f776e65722063616e277420646f20616e797468696e6700000000000000000060448201526064016104c9565b336000818152600660205260409020546001600160a01b0316036117bd5760405162461bcd60e51b815260206004820152601b60248201527f596f75206861766520616c72656164792072656769737465726564000000000060448201526064016104c9565b600380549060006117cd8361325d565b909155505033600081815260066020526040902080546001600160a01b03191690911781556001016117ff8282613311565b505060035433600090815260066020526040902060020155565b336000818152600560205260409020600201546001600160a01b0316146118795760405162461bcd60e51b81526020600482015260146024820152732cb7ba9030b932903737ba10383937bb34b232b960611b60448201526064016104c9565b806001600160a01b03166118956000546001600160a01b031690565b6001600160a01b0316036118eb5760405162461bcd60e51b815260206004820152601d60248201527f6f776e65722063616e277420676976652063657274696669636174652e00000060448201526064016104c9565b6001600160a01b03808216600081815260066020526040902054909116146119555760405162461bcd60e51b815260206004820152601860248201527f54616b6572206973206e6f7420726567697374657265642e000000000000000060448201526064016104c9565b60016001600160a01b03821660009081526009602052604090819020905161197e9089906132a6565b9081526040519081900360200190206002015460ff1660018111156119a5576119a5612e9c565b03611a095760405162461bcd60e51b815260206004820152602e60248201527f54686973207573657220697320616c726561647920636572746966696564206960448201526d37103a3434b99031b7bab939b29760911b60648201526084016104c9565b8251602e14611a505760405162461bcd60e51b8152602060048201526013602482015272092dcecc2d8d2c89acae8c2c8c2e8c290c2e6d606b1b60448201526064016104c9565b336000908152600a6020526040908190209051611b119190611a739089906132a6565b9081526040519081900360200190208054611a8d9061320d565b80601f0160208091040260200160405190810160405280929190818152602001828054611ab99061320d565b8015611b065780601f10611adb57610100808354040283529160200191611b06565b820191906000526020600020905b815481529060010190602001808311611ae957829003601f168201915b50505050508761251e565b611b1f57611b1f8686612577565b60006040518060c00160405280428152602001888152602001868152602001600a6000336001600160a01b03166001600160a01b0316815260200190815260200160002089604051611b7191906132a6565b9081526020016040518091039020600401805480602002602001604051908101604052809291908181526020016000905b82821015611c4e578382906000526020600020018054611bc19061320d565b80601f0160208091040260200160405190810160405280929190818152602001828054611bed9061320d565b8015611c3a5780601f10611c0f57610100808354040283529160200191611c3a565b820191906000526020600020905b815481529060010190602001808311611c1d57829003601f168201915b505050505081526020019060010190611ba2565b50505090825250602080820187905260409182018690526001600160a01b03851660009081526007825291822080546001818101835591845292829020845160069094020192835590830151929350839290820190611cad9082613311565b5060408201516002820190611cc29082613311565b5060608201518051611cde916003840191602090910190612ad4565b5060808201516004820190611cf39082613311565b5060a08201518051611d0f916005840191602090910190612ad4565b5050506001600160a01b0382166000908152600660209081526040808320600890925290912090611d4390600101826133fe565b503360009081526005602090815260408083206001600160a01b0386168452600890925290912060010190611d7890826133fe565b503360009081526005602090815260408083206001600160a01b0386168452600890925290912060020190611db090600101826133fe565b506001600160a01b038216600081815260066020908152604080832060020154600883528184206003810191909155600581018054600490920180546001600160a01b0319169096179095556001600160a81b0319163360ff60a01b191617600160a01b17909355600990528190209051889190611e2f9083906132a6565b90815260405190819003602001902090611e499082613311565b506001600160a01b038216600090815260096020526040908190209051859190611e74908a906132a6565b90815260200160405180910390206001019081611e919190613311565b506001600160a01b03821660009081526009602052604090819020905160019190611ebd908a906132a6565b908152604051908190036020019020600201805460ff191660018381811115611ee857611ee8612e9c565b021790555033600090815260056020526040908190206002015490516001600160a01b03918216918416907f3bba53945d04b7fb148d571bad2069f7f69e5ef5802e63e4aa149323cafd13a290611f42908b9089906133d0565b60405180910390a350505050505050565b336000818152600660205260409020546001600160a01b031614611f895760405162461bcd60e51b81526004016104c990613276565b336001600160a01b03831603611fe15760405162461bcd60e51b815260206004820152601a60248201527f596f752063616e277420696e7669746520796f757273656c662e00000000000060448201526064016104c9565b6000546001600160a01b03166001600160a01b0316826001600160a01b03160361204d5760405162461bcd60e51b815260206004820152601760248201527f596f752063616e277420696e76697465206f776e65722e00000000000000000060448201526064016104c9565b6001600160a01b03808316600081815260066020526040902054909116036120c25760405162461bcd60e51b815260206004820152602260248201527f5468697320697320616c72656164792061207265676973746572656420757365604482015261391760f11b60648201526084016104c9565b60405182906001600160a01b0382169033907f994573f14ad3b387b36188da08f32725c8840f8039c7e287413f66c333a63c5b906121019086906134d8565b60405180910390a3505050565b6001600160a01b0380821660009081526006602052604081208054600190910180549190931692606092916121429061320d565b80601f016020809104026020016040519081016040528092919081815260200182805461216e9061320d565b80156121bb5780601f10612190576101008083540402835291602001916121bb565b820191906000526020600020905b81548152906001019060200180831161219e57829003601f168201915b505050506001600160a01b03959095166000908152600660205260409020600201549395909450915050565b6121ef612474565b6001600160a01b0381166122545760405162461bcd60e51b815260206004820152602660248201527f4f776e61626c653a206e6577206f776e657220697320746865207a65726f206160448201526564647265737360d01b60648201526084016104c9565b61225d816124ce565b50565b336000818152600660205260409020546001600160a01b0316146122965760405162461bcd60e51b81526004016104c990613276565b336000818152600560205260409020600201546001600160a01b031690036123005760405162461bcd60e51b815260206004820152601860248201527f596f752061726520616c72656164792070726f7669646572000000000000000060448201526064016104c9565b33600090815260066020908152604080832060059092529091209061232890600101826133fe565b503360009081526005602052604090206001016123458282613311565b505033600090815260066020908152604080832054600590925290912060020180546001600160a01b0319166001600160a01b0392909216919091179055565b805182516000918491849111156123a157600092505050611189565b60005b815183516123b291906134eb565b811161246857600160005b8351811015612441576123ef8482815181106123db576123db6131f7565b01602001516001600160f81b031916612a97565b6001600160f81b031916612417866124078487613502565b815181106123db576123db6131f7565b6001600160f81b0319161461242f5760009150612441565b806124398161325d565b9150506123bd565b508015612455576001945050505050611189565b50806124608161325d565b9150506123a4565b50600095945050505050565b6000546001600160a01b031633146111a15760405162461bcd60e51b815260206004820181905260248201527f4f776e61626c653a2063616c6c6572206973206e6f7420746865206f776e657260448201526064016104c9565b600080546001600160a01b038381166001600160a01b0319831681178455604051919092169283917f8be0079c531659141344cd1fd0a4f28419497f9722a3daafe3b4186f6b6457e09190a35050565b60008160405160200161253191906132a6565b604051602081830303815290604052805190602001208360405160200161255891906132a6565b6040516020818303038152906040528051906020012014905092915050565b336000818152600560205260409020600201546001600160a01b0316146125d75760405162461bcd60e51b81526020600482015260146024820152732cb7ba9030b932903737ba10383937bb34b232b960611b60448201526064016104c9565b6040805160a08101825283815233600090815260056020908152928120600101805491938301916126079061320d565b80601f01602080910402602001604051908101604052809291908181526020018280546126339061320d565b80156126805780601f1061265557610100808354040283529160200191612680565b820191906000526020600020905b81548152906001019060200180831161266357829003601f168201915b505050918352505033600090815260056020908152604090912080549190920191906126ab9061320d565b80601f01602080910402602001604051908101604052809291908181526020018280546126d79061320d565b80156127245780601f106126f957610100808354040283529160200191612724565b820191906000526020600020905b81548152906001019060200180831161270757829003601f168201915b5050509183525050336000818152600560208181526040808420600201546001600160a01b03168287015294850188905292825260048352928120805460018101825590825291902083519394508493919092029091019081906127889082613311565b506020820151600182019061279d9082613311565b50604082015160028201906127b29082613311565b5060608201516003820180546001600160a01b0319166001600160a01b03909216919091179055608082015180516127f4916004840191602090910190612ad4565b5050600280546001810182556000919091527f405787fa12a823e0f2b7631cc41b3ba8828b3321ca811111fa75cd3aa3bb5ace0190506128348482613311565b503360009081526005602052604081206003018054916128538361325d565b9091555050336000908152600a60205260409081902090518491906128799083906132a6565b908152604051908190036020019020906128939082613311565b50336000908152600a60205260409081902090518391906128b59086906132a6565b908152602001604051809103902060040190805190602001906128d9929190612ad4565b50600154825160006128eb8284613502565b6001600160401b0381111561290257612902612b89565b60405190808252806020026020018201604052801561293557816020015b60608152602001906001900390816129205790505b50905060005b83811015612a195760018181548110612956576129566131f7565b90600052602060002001805461296b9061320d565b80601f01602080910402602001604051908101604052809291908181526020018280546129979061320d565b80156129e45780601f106129b9576101008083540402835291602001916129e4565b820191906000526020600020905b8154815290600101906020018083116129c757829003601f168201915b50505050508282815181106129fb576129fb6131f7565b60200260200101819052508080612a119061325d565b91505061293b565b5060005b82811015612a7a57858181518110612a3757612a376131f7565b6020026020010151828286612a4c9190613502565b81518110612a5c57612a5c6131f7565b60200260200101819052508080612a729061325d565b915050612a1d565b508051612a8e906001906020840190612ad4565b50505050505050565b6000604160f883901c10801590612ab35750605a60f883901c11155b15612ad057612ac760f883901c602061351a565b60f81b92915050565b5090565b828054828255906000526020600020908101928215612b1a579160200282015b82811115612b1a5782518290612b0a9082613311565b5091602001919060010190612af4565b50612ad09291505b80821115612ad0576000612b368282612b3f565b50600101612b22565b508054612b4b9061320d565b6000825580601f10612b5b575050565b601f01602090049060005260206000209081019061225d91905b80821115612ad05760008155600101612b75565b634e487b7160e01b600052604160045260246000fd5b604051601f8201601f191681016001600160401b0381118282101715612bc757612bc7612b89565b604052919050565b600082601f830112612be057600080fd5b81356001600160401b03811115612bf957612bf9612b89565b612c0c601f8201601f1916602001612b9f565b818152846020838601011115612c2157600080fd5b816020850160208301376000918101602001919091529392505050565b600060208284031215612c5057600080fd5b81356001600160401b03811115612c6657600080fd5b612c7284828501612bcf565b949350505050565b60005b83811015612c95578181015183820152602001612c7d565b83811115612ca4576000848401525b50505050565b60008151808452612cc2816020860160208601612c7a565b601f01601f19169290920160200192915050565b600081518084526020808501808196508360051b8101915082860160005b85811015612d1e578284038952612d0c848351612caa565b98850198935090840190600101612cf4565b5091979650505050505050565b602081526000612d3e6020830184612cd6565b9392505050565b80356001600160a01b0381168114612d5c57600080fd5b919050565b60008060408385031215612d7457600080fd5b612d7d83612d45565b915060208301356001600160401b03811115612d9857600080fd5b612da485828601612bcf565b9150509250929050565b600060208284031215612dc057600080fd5b612d3e82612d45565b600081518084526020808501945080840160005b83811015612df957815187529582019590820190600101612ddd565b509495945050505050565b600081518084526020808501808196506005915083821b81018387016000805b87811015612e8d578484038b5282518051808652908801908886019080891b87018a01855b82811015612e7757601f19898303018452612e65828651612caa565b948c0194938c01939150600101612e49565b509d8a019d965050509287019250600101612e24565b50919998505050505050505050565b634e487b7160e01b600052602160045260246000fd5b60028110612ed057634e487b7160e01b600052602160045260246000fd5b9052565b61018081526000612ee961018083018f612caa565b8d60208401528281036040840152612f01818e612dc9565b90508281036060840152612f15818d612cd6565b90508281036080840152612f29818c612cd6565b905082810360a0840152612f3d818b612caa565b905082810360c0840152612f51818a612e04565b905082810360e0840152612f658189612cd6565b9050828103610100840152612f7a8188612e04565b915050612f936101208301866001600160a01b03169052565b6001600160a01b038416610140830152612fb1610160830184612eb2565b9d9c50505050505050505050505050565b602081016111898284612eb2565b606080825284519082018190526000906020906080840190828801845b828110156130125781516001600160a01b031684529284019290840190600101612fed565b505050838103828501526130268187612cd6565b915050828103604084015261303b8185612cd6565b9695505050505050565b600082601f83011261305657600080fd5b813560206001600160401b038083111561307257613072612b89565b8260051b613081838201612b9f565b938452858101830193838101908886111561309b57600080fd5b84880192505b858310156130d7578235848111156130b95760008081fd5b6130c78a87838c0101612bcf565b83525091840191908401906130a1565b98975050505050505050565b60008060008060008060c087890312156130fc57600080fd5b86356001600160401b038082111561311357600080fd5b61311f8a838b01612bcf565b9750602089013591508082111561313557600080fd5b6131418a838b01613045565b9650604089013591508082111561315757600080fd5b6131638a838b01612bcf565b9550606089013591508082111561317957600080fd5b6131858a838b01612bcf565b9450608089013591508082111561319b57600080fd5b506131a889828a01613045565b9250506131b760a08801612d45565b90509295509295509295565b6001600160a01b03841681526060602082018190526000906131e790830185612caa565b9050826040830152949350505050565b634e487b7160e01b600052603260045260246000fd5b600181811c9082168061322157607f821691505b60208210810361324157634e487b7160e01b600052602260045260246000fd5b50919050565b634e487b7160e01b600052601160045260246000fd5b60006001820161326f5761326f613247565b5060010190565b602080825260169082015275165bdd48185c99481b9bdd081c9959da5cdd195c995960521b604082015260600190565b600082516132b8818460208701612c7a565b9190910192915050565b601f82111561330c57600081815260208120601f850160051c810160208610156132e95750805b601f850160051c820191505b81811015613308578281556001016132f5565b5050505b505050565b81516001600160401b0381111561332a5761332a612b89565b61333e81613338845461320d565b846132c2565b602080601f831160018114613373576000841561335b5750858301515b600019600386901b1c1916600185901b178555613308565b600085815260208120601f198616915b828110156133a257888601518255948401946001909101908401613383565b50858210156133c05787850151600019600388901b60f8161c191681555b5050505050600190811b01905550565b6040815260006133e36040830185612caa565b82810360208401526133f58185612caa565b95945050505050565b818103613409575050565b613413825461320d565b6001600160401b0381111561342a5761342a612b89565b61343881613338845461320d565b6000601f82116001811461346c57600083156134545750848201545b600019600385901b1c1916600184901b1784556134d1565b600085815260209020601f19841690600086815260209020845b838110156134a65782860154825560019586019590910190602001613486565b50858310156134c45781850154600019600388901b60f8161c191681555b50505060018360011b0184555b5050505050565b602081526000612d3e6020830184612caa565b6000828210156134fd576134fd613247565b500390565b6000821982111561351557613515613247565b500190565b600060ff821660ff84168060ff0382111561353757613537613247565b01939250505056fea2646970667358221220a96582618f42b6b305bfbca6f6bc7aace144dab494a50554d119ccb98cefecca64736f6c634300080f0033",
  "linkReferences": {},
  "deployedLinkReferences": {}
}